{
  "contractName": "CFPFactory",
  "abi": [
    {
      "inputs": [],
      "stateMutability": "nonpayable",
      "type": "constructor"
    },
    {
      "anonymous": false,
      "inputs": [
        {
          "indexed": true,
          "internalType": "address",
          "name": "creator",
          "type": "address"
        },
        {
          "indexed": true,
          "internalType": "bytes32",
          "name": "callId",
          "type": "bytes32"
        },
        {
          "indexed": false,
          "internalType": "contract CFP",
          "name": "cfp",
          "type": "address"
        }
      ],
      "name": "CFPCreated",
      "type": "event"
    },
    {
      "inputs": [],
      "name": "owner",
      "outputs": [
        {
          "internalType": "address",
          "name": "",
          "type": "address"
        }
      ],
      "stateMutability": "view",
      "type": "function",
      "constant": true
    },
    {
      "inputs": [
        {
          "internalType": "bytes32",
          "name": "callId",
          "type": "bytes32"
        }
      ],
      "name": "calls",
      "outputs": [
        {
          "components": [
            {
              "internalType": "address",
              "name": "creator",
              "type": "address"
            },
            {
              "internalType": "contract CFP",
              "name": "cfp",
              "type": "address"
            }
          ],
          "internalType": "struct CFPFactory.CallForProposals",
          "name": "",
          "type": "tuple"
        }
      ],
      "stateMutability": "view",
      "type": "function",
      "constant": true
    },
    {
      "inputs": [],
      "name": "allCallIds",
      "outputs": [
        {
          "internalType": "bytes32[]",
          "name": "",
          "type": "bytes32[]"
        }
      ],
      "stateMutability": "view",
      "type": "function",
      "constant": true
    },
    {
      "inputs": [],
      "name": "creatorsCount",
      "outputs": [
        {
          "internalType": "uint256",
          "name": "",
          "type": "uint256"
        }
      ],
      "stateMutability": "view",
      "type": "function",
      "constant": true
    },
    {
      "inputs": [
        {
          "internalType": "uint256",
          "name": "index",
          "type": "uint256"
        }
      ],
      "name": "creators",
      "outputs": [
        {
          "internalType": "address",
          "name": "",
          "type": "address"
        }
      ],
      "stateMutability": "view",
      "type": "function",
      "constant": true
    },
    {
      "inputs": [
        {
          "internalType": "address",
          "name": "creator",
          "type": "address"
        },
        {
          "internalType": "uint256",
          "name": "index",
          "type": "uint256"
        }
      ],
      "name": "createdBy",
      "outputs": [
        {
          "internalType": "bytes32",
          "name": "",
          "type": "bytes32"
        }
      ],
      "stateMutability": "view",
      "type": "function",
      "constant": true
    },
    {
      "inputs": [
        {
          "internalType": "address",
          "name": "creator",
          "type": "address"
        }
      ],
      "name": "createdByCount",
      "outputs": [
        {
          "internalType": "uint256",
          "name": "",
          "type": "uint256"
        }
      ],
      "stateMutability": "view",
      "type": "function",
      "constant": true
    },
    {
      "inputs": [],
      "name": "pendingCount",
      "outputs": [
        {
          "internalType": "uint256",
          "name": "",
          "type": "uint256"
        }
      ],
      "stateMutability": "view",
      "type": "function",
      "constant": true
    },
    {
      "inputs": [
        {
          "internalType": "uint256",
          "name": "index",
          "type": "uint256"
        }
      ],
      "name": "getPending",
      "outputs": [
        {
          "internalType": "address",
          "name": "",
          "type": "address"
        }
      ],
      "stateMutability": "view",
      "type": "function",
      "constant": true
    },
    {
      "inputs": [],
      "name": "getAllPending",
      "outputs": [
        {
          "internalType": "address[]",
          "name": "",
          "type": "address[]"
        }
      ],
      "stateMutability": "view",
      "type": "function",
      "constant": true
    },
    {
      "inputs": [
        {
          "internalType": "address",
          "name": "account",
          "type": "address"
        }
      ],
      "name": "isRegistered",
      "outputs": [
        {
          "internalType": "bool",
          "name": "",
          "type": "bool"
        }
      ],
      "stateMutability": "view",
      "type": "function",
      "constant": true
    },
    {
      "inputs": [
        {
          "internalType": "address",
          "name": "account",
          "type": "address"
        }
      ],
      "name": "isAuthorized",
      "outputs": [
        {
          "internalType": "bool",
          "name": "",
          "type": "bool"
        }
      ],
      "stateMutability": "view",
      "type": "function",
      "constant": true
    },
    {
      "inputs": [
        {
          "internalType": "bytes32",
          "name": "callId",
          "type": "bytes32"
        },
        {
          "internalType": "uint256",
          "name": "timestamp",
          "type": "uint256"
        }
      ],
      "name": "create",
      "outputs": [
        {
          "internalType": "contract CFP",
          "name": "",
          "type": "address"
        }
      ],
      "stateMutability": "nonpayable",
      "type": "function"
    },
    {
      "inputs": [
        {
          "internalType": "bytes32",
          "name": "callId",
          "type": "bytes32"
        },
        {
          "internalType": "uint256",
          "name": "timestamp",
          "type": "uint256"
        },
        {
          "internalType": "address",
          "name": "creator",
          "type": "address"
        }
      ],
      "name": "createFor",
      "outputs": [
        {
          "internalType": "contract CFP",
          "name": "",
          "type": "address"
        }
      ],
      "stateMutability": "nonpayable",
      "type": "function"
    },
    {
      "inputs": [
        {
          "internalType": "bytes32",
          "name": "callId",
          "type": "bytes32"
        },
        {
          "internalType": "bytes32",
          "name": "proposal",
          "type": "bytes32"
        }
      ],
      "name": "registerProposal",
      "outputs": [],
      "stateMutability": "nonpayable",
      "type": "function"
    },
    {
      "inputs": [],
      "name": "register",
      "outputs": [],
      "stateMutability": "nonpayable",
      "type": "function"
    },
    {
      "inputs": [
        {
          "internalType": "address",
          "name": "creator",
          "type": "address"
        }
      ],
      "name": "authorize",
      "outputs": [],
      "stateMutability": "nonpayable",
      "type": "function"
    },
    {
      "inputs": [
        {
          "internalType": "address",
          "name": "creator",
          "type": "address"
        }
      ],
      "name": "unauthorize",
      "outputs": [],
      "stateMutability": "nonpayable",
      "type": "function"
    }
  ],
  "bytecode": "0x60a060405234801561001057600080fd5b503373ffffffffffffffffffffffffffffffffffffffff1660808173ffffffffffffffffffffffffffffffffffffffff16815250506080516135c261008a600039600081816107700152818161089a0152818161099601528181610afa01528181610fb80152818161105401526111e001526135c26000f3fe60806040523480156200001157600080fd5b5060043610620001305760003560e01c8063c3c5a54711620000b1578063ea70b4af116200007b578063ea70b4af1462000361578063f0b37c041462000383578063f112ba7214620003a3578063f80364c714620003c5578063fe9fbb8014620003fb5762000130565b8063c3c5a547146200029d578063cd53d08e14620002d3578063cff102651462000309578063e46bda54146200033f5762000130565b80638da5cb5b11620000ff5780638da5cb5b14620001b9578063a042c13214620001db578063ab4f48c41462000211578063b6a5d7de1462000247578063b711cf2814620002675762000130565b80631a0e440714620001355780631aa3a00814620001575780636a87d805146200016357806384f89a931462000183575b600080fd5b6200013f62000431565b6040516200014e919062001ac6565b60405180910390f35b620001616200048b565b005b6200018160048036038101906200017b919062001b20565b62000619565b005b620001a160048036038101906200019b919062001ba2565b6200076c565b604051620001b0919062001c19565b60405180910390f35b620001c362000896565b604051620001d2919062001c19565b60405180910390f35b620001f96004803603810190620001f3919062001c36565b620008be565b60405162000208919062001ce8565b60405180910390f35b6200022f600480360381019062000229919062001d36565b62000992565b6040516200023e919062001ce8565b60405180910390f35b6200026560048036038101906200025f919062001d92565b62000af8565b005b6200028560048036038101906200027f919062001d92565b62000d2b565b60405162000294919062001dd5565b60405180910390f35b620002bb6004803603810190620002b5919062001d92565b62000d77565b604051620002ca919062001e0f565b60405180910390f35b620002f16004803603810190620002eb919062001ba2565b62000e34565b60405162000300919062001c19565b60405180910390f35b62000327600480360381019062000321919062001e2c565b62000ecd565b60405162000336919062001eb3565b60405180910390f35b6200034962000fa7565b60405162000358919062001dd5565b60405180910390f35b6200036b62000fb4565b6040516200037a919062001dd5565b60405180910390f35b620003a160048036038101906200039b919062001d92565b62001052565b005b620003ad620011dc565b604051620003bc919062001f8d565b60405180910390f35b620003e36004803603810190620003dd919062001fb1565b620012fd565b604051620003f2919062002009565b60405180910390f35b62000419600480360381019062000413919062001d92565b620013f1565b60405162000428919062001e0f565b60405180910390f35b606060018054806020026020016040519081016040528092919081815260200182805480156200048157602002820191906000526020600020905b8154815260200190600101908083116200046c575b5050505050905090565b3360006002811115620004a357620004a262002026565b5b600260008373ffffffffffffffffffffffffffffffffffffffff1673ffffffffffffffffffffffffffffffffffffffff16815260200190815260200160002060009054906101000a900460ff16600281111562000505576200050462002026565b5b1462000548576040517f08c379a00000000000000000000000000000000000000000000000000000000081526004016200053f90620020b6565b60405180910390fd5b6001600260003373ffffffffffffffffffffffffffffffffffffffff1673ffffffffffffffffffffffffffffffffffffffff16815260200190815260200160002060006101000a81548160ff02191690836002811115620005ae57620005ad62002026565b5b02179055506003339080600181540180825580915050600190039060005260206000200160009091909190916101000a81548173ffffffffffffffffffffffffffffffffffffffff021916908373ffffffffffffffffffffffffffffffffffffffff16021790555050565b81600073ffffffffffffffffffffffffffffffffffffffff1660008083815260200190815260200160002060000160009054906101000a900473ffffffffffffffffffffffffffffffffffffffff1673ffffffffffffffffffffffffffffffffffffffff1603620006c1576040517f08c379a0000000000000000000000000000000000000000000000000000000008152600401620006b89062002128565b60405180910390fd5b60008084815260200190815260200160002060010160009054906101000a900473ffffffffffffffffffffffffffffffffffffffff1673ffffffffffffffffffffffffffffffffffffffff16639c9cbf9c83336040518363ffffffff1660e01b8152600401620007339291906200214a565b600060405180830381600087803b1580156200074e57600080fd5b505af115801562000763573d6000803e3d6000fd5b50505050505050565b60007f000000000000000000000000000000000000000000000000000000000000000073ffffffffffffffffffffffffffffffffffffffff163373ffffffffffffffffffffffffffffffffffffffff1614620007ff576040517f08c379a0000000000000000000000000000000000000000000000000000000008152600401620007f690620021ed565b60405180910390fd5b816003805490508082106200084b576040517f08c379a000000000000000000000000000000000000000000000000000000000815260040162000842906200225f565b60405180910390fd5b6003848154811062000862576200086162002281565b5b9060005260206000200160009054906101000a900473ffffffffffffffffffffffffffffffffffffffff1692505050919050565b60007f0000000000000000000000000000000000000000000000000000000000000000905090565b600033600280811115620008d757620008d662002026565b5b600260008373ffffffffffffffffffffffffffffffffffffffff1673ffffffffffffffffffffffffffffffffffffffff16815260200190815260200160002060009054906101000a900460ff16600281111562000939576200093862002026565b5b146200097c576040517f08c379a0000000000000000000000000000000000000000000000000000000008152600401620009739062002300565b60405180910390fd5b6200098984843362001473565b91505092915050565b60007f000000000000000000000000000000000000000000000000000000000000000073ffffffffffffffffffffffffffffffffffffffff163373ffffffffffffffffffffffffffffffffffffffff161462000a25576040517f08c379a000000000000000000000000000000000000000000000000000000000815260040162000a1c90620021ed565b60405180910390fd5b8160028081111562000a3c5762000a3b62002026565b5b600260008373ffffffffffffffffffffffffffffffffffffffff1673ffffffffffffffffffffffffffffffffffffffff16815260200190815260200160002060009054906101000a900460ff16600281111562000a9e5762000a9d62002026565b5b1462000ae1576040517f08c379a000000000000000000000000000000000000000000000000000000000815260040162000ad89062002300565b60405180910390fd5b62000aee85858562001473565b9150509392505050565b7f000000000000000000000000000000000000000000000000000000000000000073ffffffffffffffffffffffffffffffffffffffff163373ffffffffffffffffffffffffffffffffffffffff161462000b89576040517f08c379a000000000000000000000000000000000000000000000000000000000815260040162000b8090620021ed565b60405180910390fd5b6000600260008373ffffffffffffffffffffffffffffffffffffffff1673ffffffffffffffffffffffffffffffffffffffff16815260200190815260200160002060009054906101000a900460ff1690506000600281111562000bf15762000bf062002026565b5b81600281111562000c075762000c0662002026565b5b0362000c7d5760028060008473ffffffffffffffffffffffffffffffffffffffff1673ffffffffffffffffffffffffffffffffffffffff16815260200190815260200160002060006101000a81548160ff0219169083600281111562000c725762000c7162002026565b5b021790555062000d27565b6001600281111562000c945762000c9362002026565b5b81600281111562000caa5762000ca962002026565b5b0362000d265762000cbb82620017dd565b60028060008473ffffffffffffffffffffffffffffffffffffffff1673ffffffffffffffffffffffffffffffffffffffff16815260200190815260200160002060006101000a81548160ff0219169083600281111562000d205762000d1f62002026565b5b02179055505b5b5050565b6000600560008373ffffffffffffffffffffffffffffffffffffffff1673ffffffffffffffffffffffffffffffffffffffff168152602001908152602001600020805490509050919050565b600080600260008473ffffffffffffffffffffffffffffffffffffffff1673ffffffffffffffffffffffffffffffffffffffff16815260200190815260200160002060009054906101000a900460ff1690506001600281111562000de05762000ddf62002026565b5b81600281111562000df65762000df562002026565b5b148062000e2c575060028081111562000e145762000e1362002026565b5b81600281111562000e2a5762000e2962002026565b5b145b915050919050565b60008160048054905080821062000e82576040517f08c379a000000000000000000000000000000000000000000000000000000000815260040162000e79906200225f565b60405180910390fd5b6004848154811062000e995762000e9862002281565b5b9060005260206000200160009054906101000a900473ffffffffffffffffffffffffffffffffffffffff1692505050919050565b62000ed76200199a565b6000808381526020019081526020016000206040518060400160405290816000820160009054906101000a900473ffffffffffffffffffffffffffffffffffffffff1673ffffffffffffffffffffffffffffffffffffffff1673ffffffffffffffffffffffffffffffffffffffff1681526020016001820160009054906101000a900473ffffffffffffffffffffffffffffffffffffffff1673ffffffffffffffffffffffffffffffffffffffff1673ffffffffffffffffffffffffffffffffffffffff16815250509050919050565b6000600480549050905090565b60007f000000000000000000000000000000000000000000000000000000000000000073ffffffffffffffffffffffffffffffffffffffff163373ffffffffffffffffffffffffffffffffffffffff161462001047576040517f08c379a00000000000000000000000000000000000000000000000000000000081526004016200103e90620021ed565b60405180910390fd5b600380549050905090565b7f000000000000000000000000000000000000000000000000000000000000000073ffffffffffffffffffffffffffffffffffffffff163373ffffffffffffffffffffffffffffffffffffffff1614620010e3576040517f08c379a0000000000000000000000000000000000000000000000000000000008152600401620010da90620021ed565b60405180910390fd5b60016002811115620010fa57620010f962002026565b5b600260008373ffffffffffffffffffffffffffffffffffffffff1673ffffffffffffffffffffffffffffffffffffffff16815260200190815260200160002060009054906101000a900460ff1660028111156200115c576200115b62002026565b5b036200116e576200116d81620017dd565b5b6000600260008373ffffffffffffffffffffffffffffffffffffffff1673ffffffffffffffffffffffffffffffffffffffff16815260200190815260200160002060006101000a81548160ff02191690836002811115620011d457620011d362002026565b5b021790555050565b60607f000000000000000000000000000000000000000000000000000000000000000073ffffffffffffffffffffffffffffffffffffffff163373ffffffffffffffffffffffffffffffffffffffff16146200126f576040517f08c379a00000000000000000000000000000000000000000000000000000000081526004016200126690620021ed565b60405180910390fd5b6003805480602002602001604051908101604052809291908181526020018280548015620012f357602002820191906000526020600020905b8160009054906101000a900473ffffffffffffffffffffffffffffffffffffffff1673ffffffffffffffffffffffffffffffffffffffff1681526020019060010190808311620012a8575b5050505050905090565b600081600560008573ffffffffffffffffffffffffffffffffffffffff1673ffffffffffffffffffffffffffffffffffffffff1681526020019081526020016000208054905080821062001388576040517f08c379a00000000000000000000000000000000000000000000000000000000081526004016200137f906200225f565b60405180910390fd5b600560008673ffffffffffffffffffffffffffffffffffffffff1673ffffffffffffffffffffffffffffffffffffffff1681526020019081526020016000208481548110620013dc57620013db62002281565b5b90600052602060002001549250505092915050565b600060028081111562001409576200140862002026565b5b600260008473ffffffffffffffffffffffffffffffffffffffff1673ffffffffffffffffffffffffffffffffffffffff16815260200190815260200160002060009054906101000a900460ff1660028111156200146b576200146a62002026565b5b149050919050565b600083600073ffffffffffffffffffffffffffffffffffffffff1660008083815260200190815260200160002060000160009054906101000a900473ffffffffffffffffffffffffffffffffffffffff1673ffffffffffffffffffffffffffffffffffffffff16146200151d576040517f08c379a0000000000000000000000000000000000000000000000000000000008152600401620015149062002372565b60405180910390fd5b60008585856040516200153090620019e0565b6200153e9392919062002394565b604051809103906000f0801580156200155b573d6000803e3d6000fd5b50905060405180604001604052808573ffffffffffffffffffffffffffffffffffffffff1681526020018273ffffffffffffffffffffffffffffffffffffffff1681525060008088815260200190815260200160002060008201518160000160006101000a81548173ffffffffffffffffffffffffffffffffffffffff021916908373ffffffffffffffffffffffffffffffffffffffff16021790555060208201518160010160006101000a81548173ffffffffffffffffffffffffffffffffffffffff021916908373ffffffffffffffffffffffffffffffffffffffff16021790555090505060018690806001815401808255809150506001900390600052602060002001600090919091909150556000600560008673ffffffffffffffffffffffffffffffffffffffff1673ffffffffffffffffffffffffffffffffffffffff16815260200190815260200160002080549050036200171a576004849080600181540180825580915050600190039060005260206000200160009091909190916101000a81548173ffffffffffffffffffffffffffffffffffffffff021916908373ffffffffffffffffffffffffffffffffffffffff1602179055505b600560008573ffffffffffffffffffffffffffffffffffffffff1673ffffffffffffffffffffffffffffffffffffffff168152602001908152602001600020869080600181540180825580915050600190039060005260206000200160009091909190915055858473ffffffffffffffffffffffffffffffffffffffff167fc8e97c2f1b3ebe76aeef2bb679bcca3e5e5515fedd7c25a76b0929ad2b7c3ace83604051620017c9919062001ce8565b60405180910390a380925050509392505050565b6000600380549050905060005b8181101562001995578273ffffffffffffffffffffffffffffffffffffffff166003828154811062001821576200182062002281565b5b9060005260206000200160009054906101000a900473ffffffffffffffffffffffffffffffffffffffff1673ffffffffffffffffffffffffffffffffffffffff16036200197f5760018262001877919062002400565b8110156200192f57600360018362001890919062002400565b81548110620018a457620018a362002281565b5b9060005260206000200160009054906101000a900473ffffffffffffffffffffffffffffffffffffffff1660038281548110620018e657620018e562002281565b5b9060005260206000200160006101000a81548173ffffffffffffffffffffffffffffffffffffffff021916908373ffffffffffffffffffffffffffffffffffffffff1602179055505b60038054806200194457620019436200243b565b5b6001900381819060005260206000200160006101000a81549073ffffffffffffffffffffffffffffffffffffffff0219169055905562001995565b80806200198c906200246a565b915050620017ea565b505050565b6040518060400160405280600073ffffffffffffffffffffffffffffffffffffffff168152602001600073ffffffffffffffffffffffffffffffffffffffff1681525090565b6110d580620024b883390190565b600081519050919050565b600082825260208201905092915050565b6000819050602082019050919050565b6000819050919050565b62001a2f8162001a1a565b82525050565b600062001a43838362001a24565b60208301905092915050565b6000602082019050919050565b600062001a6982620019ee565b62001a758185620019f9565b935062001a828362001a0a565b8060005b8381101562001ab957815162001a9d888262001a35565b975062001aaa8362001a4f565b92505060018101905062001a86565b5085935050505092915050565b6000602082019050818103600083015262001ae2818462001a5c565b905092915050565b600080fd5b62001afa8162001a1a565b811462001b0657600080fd5b50565b60008135905062001b1a8162001aef565b92915050565b6000806040838503121562001b3a5762001b3962001aea565b5b600062001b4a8582860162001b09565b925050602062001b5d8582860162001b09565b9150509250929050565b6000819050919050565b62001b7c8162001b67565b811462001b8857600080fd5b50565b60008135905062001b9c8162001b71565b92915050565b60006020828403121562001bbb5762001bba62001aea565b5b600062001bcb8482850162001b8b565b91505092915050565b600073ffffffffffffffffffffffffffffffffffffffff82169050919050565b600062001c018262001bd4565b9050919050565b62001c138162001bf4565b82525050565b600060208201905062001c30600083018462001c08565b92915050565b6000806040838503121562001c505762001c4f62001aea565b5b600062001c608582860162001b09565b925050602062001c738582860162001b8b565b9150509250929050565b6000819050919050565b600062001ca862001ca262001c9c8462001bd4565b62001c7d565b62001bd4565b9050919050565b600062001cbc8262001c87565b9050919050565b600062001cd08262001caf565b9050919050565b62001ce28162001cc3565b82525050565b600060208201905062001cff600083018462001cd7565b92915050565b62001d108162001bf4565b811462001d1c57600080fd5b50565b60008135905062001d308162001d05565b92915050565b60008060006060848603121562001d525762001d5162001aea565b5b600062001d628682870162001b09565b935050602062001d758682870162001b8b565b925050604062001d888682870162001d1f565b9150509250925092565b60006020828403121562001dab5762001daa62001aea565b5b600062001dbb8482850162001d1f565b91505092915050565b62001dcf8162001b67565b82525050565b600060208201905062001dec600083018462001dc4565b92915050565b60008115159050919050565b62001e098162001df2565b82525050565b600060208201905062001e26600083018462001dfe565b92915050565b60006020828403121562001e455762001e4462001aea565b5b600062001e558482850162001b09565b91505092915050565b62001e698162001bf4565b82525050565b62001e7a8162001cc3565b82525050565b60408201600082015162001e98600085018262001e5e565b50602082015162001ead602085018262001e6f565b50505050565b600060408201905062001eca600083018462001e80565b92915050565b600081519050919050565b600082825260208201905092915050565b6000819050602082019050919050565b600062001f0a838362001e5e565b60208301905092915050565b6000602082019050919050565b600062001f308262001ed0565b62001f3c818562001edb565b935062001f498362001eec565b8060005b8381101562001f8057815162001f64888262001efc565b975062001f718362001f16565b92505060018101905062001f4d565b5085935050505092915050565b6000602082019050818103600083015262001fa9818462001f23565b905092915050565b6000806040838503121562001fcb5762001fca62001aea565b5b600062001fdb8582860162001d1f565b925050602062001fee8582860162001b8b565b9150509250929050565b620020038162001a1a565b82525050565b600060208201905062002020600083018462001ff8565b92915050565b7f4e487b7100000000000000000000000000000000000000000000000000000000600052602160045260246000fd5b600082825260208201905092915050565b7f5961207365206861207265676973747261646f00000000000000000000000000600082015250565b60006200209e60138362002055565b9150620020ab8262002066565b602082019050919050565b60006020820190508181036000830152620020d1816200208f565b9050919050565b7f456c206c6c616d61646f206e6f20657869737465000000000000000000000000600082015250565b60006200211060148362002055565b91506200211d82620020d8565b602082019050919050565b60006020820190508181036000830152620021438162002101565b9050919050565b600060408201905062002161600083018562001ff8565b62002170602083018462001c08565b9392505050565b7f536f6c6f20656c2063726561646f72207075656465206861636572206573746160008201527f206c6c616d616461000000000000000000000000000000000000000000000000602082015250565b6000620021d560288362002055565b9150620021e28262002177565b604082019050919050565b600060208201905081810360008301526200220881620021c6565b9050919050565b7f496e646963652066756572612064652072616e676f0000000000000000000000600082015250565b60006200224760158362002055565b915062002254826200220f565b602082019050919050565b600060208201905081810360008301526200227a8162002238565b9050919050565b7f4e487b7100000000000000000000000000000000000000000000000000000000600052603260045260246000fd5b7f4e6f206175746f72697a61646f00000000000000000000000000000000000000600082015250565b6000620022e8600d8362002055565b9150620022f582620022b0565b602082019050919050565b600060208201905081810360008301526200231b81620022d9565b9050919050565b7f456c206c6c616d61646f20796120657869737465000000000000000000000000600082015250565b60006200235a60148362002055565b9150620023678262002322565b602082019050919050565b600060208201905081810360008301526200238d816200234b565b9050919050565b6000606082019050620023ab600083018662001ff8565b620023ba602083018562001dc4565b620023c9604083018462001c08565b949350505050565b7f4e487b7100000000000000000000000000000000000000000000000000000000600052601160045260246000fd5b60006200240d8262001b67565b91506200241a8362001b67565b9250828203905081811115620024355762002434620023d1565b5b92915050565b7f4e487b7100000000000000000000000000000000000000000000000000000000600052603160045260246000fd5b6000620024778262001b67565b91507fffffffffffffffffffffffffffffffffffffffffffffffffffffffffffffffff8203620024ac57620024ab620023d1565b5b60018201905091905056fe6101006040523480156200001257600080fd5b50604051620010d5380380620010d5833981810160405281019062000038919062000250565b600073ffffffffffffffffffffffffffffffffffffffff168173ffffffffffffffffffffffffffffffffffffffff1603620000aa576040517f08c379a0000000000000000000000000000000000000000000000000000000008152600401620000a1906200030d565b60405180910390fd5b428211620000ef576040517f08c379a0000000000000000000000000000000000000000000000000000000008152600401620000e690620003a5565b60405180910390fd5b8073ffffffffffffffffffffffffffffffffffffffff1660c08173ffffffffffffffffffffffffffffffffffffffff16815250503373ffffffffffffffffffffffffffffffffffffffff1660e08173ffffffffffffffffffffffffffffffffffffffff168152505082608081815250508160a08181525050505050620003c7565b600080fd5b6000819050919050565b6200018a8162000175565b81146200019657600080fd5b50565b600081519050620001aa816200017f565b92915050565b6000819050919050565b620001c581620001b0565b8114620001d157600080fd5b50565b600081519050620001e581620001ba565b92915050565b600073ffffffffffffffffffffffffffffffffffffffff82169050919050565b60006200021882620001eb565b9050919050565b6200022a816200020b565b81146200023657600080fd5b50565b6000815190506200024a816200021f565b92915050565b6000806000606084860312156200026c576200026b62000170565b5b60006200027c8682870162000199565b93505060206200028f86828701620001d4565b9250506040620002a28682870162000239565b9150509250925092565b600082825260208201905092915050565b7f6f776e657220696e76616c69646f000000000000000000000000000000000000600082015250565b6000620002f5600e83620002ac565b91506200030282620002bd565b602082019050919050565b600060208201905081810360008301526200032881620002e6565b9050919050565b7f456c20636965727265206465206c6120636f6e766f6361746f726961206e6f2060008201527f707565646520657374617220656e20656c2070617361646f0000000000000000602082015250565b60006200038d603883620002ac565b91506200039a826200032f565b604082019050919050565b60006020820190508181036000830152620003c0816200037e565b9050919050565b60805160a05160c05160e051610cbf620004166000396000818161027801526104b9015260006104930152600081816102bf015281816102e60152610548015260006106600152610cbf6000f3fe608060405234801561001057600080fd5b506004361061009e5760003560e01c80636424e719116100665780636424e7191461015b5780638da5cb5b1461018b5780639c9cbf9c146101a9578063d955cb00146101c5578063da35c664146101e35761009e565b8063013cf08b146100a357806302d05d3f146100d35780633696b787146100f15780634b6753bc146101215780635dcfbcc21461013f575b600080fd5b6100bd60048036038101906100b89190610826565b610201565b6040516100ca919061086c565b60405180910390f35b6100db610274565b6040516100e891906108c8565b60405180910390f35b61010b6004803603810190610106919061090f565b61029c565b604051610118919061094b565b60405180910390f35b6101296102bb565b604051610136919061094b565b60405180910390f35b6101596004803603810190610154919061090f565b6102e3565b005b6101756004803603810190610170919061090f565b6103f9565b60405161018291906109c6565b60405180910390f35b61019361048f565b6040516101a091906108c8565b60405180910390f35b6101c360048036038101906101be9190610a0d565b6104b7565b005b6101cd61065c565b6040516101da919061086c565b60405180910390f35b6101eb610684565b6040516101f8919061094b565b60405180910390f35b60008160018054905080821061024c576040517f08c379a000000000000000000000000000000000000000000000000000000000815260040161024390610aaa565b60405180910390fd5b600184815481106102605761025f610aca565b5b906000526020600020015492505050919050565b60007f0000000000000000000000000000000000000000000000000000000000000000905090565b6000806000838152602001908152602001600020600201549050919050565b60007f0000000000000000000000000000000000000000000000000000000000000000905090565b807f0000000000000000000000000000000000000000000000000000000000000000421115610347576040517f08c379a000000000000000000000000000000000000000000000000000000000815260040161033e90610b45565b60405180910390fd5b600073ffffffffffffffffffffffffffffffffffffffff1660008083815260200190815260200160002060000160009054906101000a900473ffffffffffffffffffffffffffffffffffffffff1673ffffffffffffffffffffffffffffffffffffffff16146103eb576040517f08c379a00000000000000000000000000000000000000000000000000000000081526004016103e290610bd7565b60405180910390fd5b6103f58233610691565b5050565b6104016107b4565b6000808381526020019081526020016000206040518060600160405290816000820160009054906101000a900473ffffffffffffffffffffffffffffffffffffffff1673ffffffffffffffffffffffffffffffffffffffff1673ffffffffffffffffffffffffffffffffffffffff168152602001600182015481526020016002820154815250509050919050565b60007f0000000000000000000000000000000000000000000000000000000000000000905090565b7f000000000000000000000000000000000000000000000000000000000000000073ffffffffffffffffffffffffffffffffffffffff163373ffffffffffffffffffffffffffffffffffffffff1614610545576040517f08c379a000000000000000000000000000000000000000000000000000000000815260040161053c90610c69565b60405180910390fd5b817f00000000000000000000000000000000000000000000000000000000000000004211156105a9576040517f08c379a00000000000000000000000000000000000000000000000000000000081526004016105a090610b45565b60405180910390fd5b600073ffffffffffffffffffffffffffffffffffffffff1660008083815260200190815260200160002060000160009054906101000a900473ffffffffffffffffffffffffffffffffffffffff1673ffffffffffffffffffffffffffffffffffffffff161461064d576040517f08c379a000000000000000000000000000000000000000000000000000000000815260040161064490610bd7565b60405180910390fd5b6106578383610691565b505050565b60007f0000000000000000000000000000000000000000000000000000000000000000905090565b6000600180549050905090565b600060405180606001604052808373ffffffffffffffffffffffffffffffffffffffff1681526020014381526020014281525090508060008085815260200190815260200160002060008201518160000160006101000a81548173ffffffffffffffffffffffffffffffffffffffff021916908373ffffffffffffffffffffffffffffffffffffffff160217905550602082015181600101556040820151816002015590505060018390806001815401808255809150506001900390600052602060002001600090919091909150558173ffffffffffffffffffffffffffffffffffffffff16837f1a26f048630a7f2b9229c19a042fe677bbbad402ecb8f3fa77f9c4a3f98cae94436040516107a7919061094b565b60405180910390a3505050565b6040518060600160405280600073ffffffffffffffffffffffffffffffffffffffff16815260200160008152602001600081525090565b600080fd5b6000819050919050565b610803816107f0565b811461080e57600080fd5b50565b600081359050610820816107fa565b92915050565b60006020828403121561083c5761083b6107eb565b5b600061084a84828501610811565b91505092915050565b6000819050919050565b61086681610853565b82525050565b6000602082019050610881600083018461085d565b92915050565b600073ffffffffffffffffffffffffffffffffffffffff82169050919050565b60006108b282610887565b9050919050565b6108c2816108a7565b82525050565b60006020820190506108dd60008301846108b9565b92915050565b6108ec81610853565b81146108f757600080fd5b50565b600081359050610909816108e3565b92915050565b600060208284031215610925576109246107eb565b5b6000610933848285016108fa565b91505092915050565b610945816107f0565b82525050565b6000602082019050610960600083018461093c565b92915050565b61096f816108a7565b82525050565b61097e816107f0565b82525050565b60608201600082015161099a6000850182610966565b5060208201516109ad6020850182610975565b5060408201516109c06040850182610975565b50505050565b60006060820190506109db6000830184610984565b92915050565b6109ea816108a7565b81146109f557600080fd5b50565b600081359050610a07816109e1565b92915050565b60008060408385031215610a2457610a236107eb565b5b6000610a32858286016108fa565b9250506020610a43858286016109f8565b9150509250929050565b600082825260208201905092915050565b7f496e646963652066756572612064652072616e676f0000000000000000000000600082015250565b6000610a94601583610a4d565b9150610a9f82610a5e565b602082019050919050565b60006020820190508181036000830152610ac381610a87565b9050919050565b7f4e487b7100000000000000000000000000000000000000000000000000000000600052603260045260246000fd5b7f436f6e766f6361746f7269612063657272616461000000000000000000000000600082015250565b6000610b2f601483610a4d565b9150610b3a82610af9565b602082019050919050565b60006020820190508181036000830152610b5e81610b22565b9050919050565b7f4c612070726f707565737461207961206861207369646f20726567697374726160008201527f6461000000000000000000000000000000000000000000000000000000000000602082015250565b6000610bc1602283610a4d565b9150610bcc82610b65565b604082019050919050565b60006020820190508181036000830152610bf081610bb4565b9050919050565b7f536f6c6f20656c2063726561646f72207075656465206861636572206573746160008201527f206c6c616d616461000000000000000000000000000000000000000000000000602082015250565b6000610c53602883610a4d565b9150610c5e82610bf7565b604082019050919050565b60006020820190508181036000830152610c8281610c46565b905091905056fea26469706673582212205c732c68b951c20b4b62963646a09159c3b00ed409d2fcfacc5de4cd2d1e62c464736f6c63430008130033a264697066735822122031818cf2d41e2fe988542d15909c34ba54c2b7f8bbf90d67781433f99988d2e964736f6c63430008130033",
  "immutableReferences": {
    "311": [
      {
        "length": 32,
        "start": 1904
      },
      {
        "length": 32,
        "start": 2202
      },
      {
        "length": 32,
        "start": 2454
      },
      {
        "length": 32,
        "start": 2810
      },
      {
        "length": 32,
        "start": 4024
      },
      {
        "length": 32,
        "start": 4180
      },
      {
        "length": 32,
        "start": 4576
      }
    ]
  },
  "source": "// // SPDX-License-Identifier: MIT\npragma solidity ^0.8.19;\n\nimport \"./CFP.sol\";\n\ncontract CFPFactory {\n    // Evento que se emite cuando se crea un llamado a presentacin de propuestas\n    event CFPCreated(address indexed creator, bytes32 indexed callId, CFP cfp);\n\n    // Estructura que representa un llamado\n    struct CallForProposals {\n        address creator; // Direccin del creador del llamado\n        CFP cfp; // Contrato CFP que gestiona las propuestas de ese llamado\n    }\n\n    // Estructura para estado de cuentas\n    // observacion: enum con los 3 estados, y no pensar como combinacion de valores\n    // no todas las combinaciones son validas (si esta autorizado se supone que esta registrado)\n    // se complica la logica de los combinaciones\n    enum AccountState {\n        NotRegistered,\n        Pending,\n        Authorized\n    }\n\n    // para no tener multiples mappins se puede crear una extructura creator con todo los datos\n\n    address private immutable _owner; // Direccin del dueo de la factora (quien despleg el contrato)\n\n    mapping(bytes32 => CallForProposals) private _calls; // Mapeo de identificadores de llamados\n\n    bytes32[] private _callIds; // Lista de todos los callIds creados\n\n    mapping(address => AccountState) private _accountState; // Estado de las cuentas\n\n    address[] private _pending; // Cuentas pendientes de autorizacin\n\n    address[] private _creators; // Lista de direcciones que han creado llamados\n\n    mapping(address => bytes32[]) private _callsCreatedBy; // Llamados creados por cada direccin\n\n    // Modificador que permite solo al dueo ejecutar ciertas funciones\n    modifier onlyOwner() {\n        require(\n            msg.sender == _owner,\n            \"Solo el creador puede hacer esta llamada\"\n        );\n        _;\n    }\n\n    // Modificador que permite solo a cuentas autorizadas ejecutar ciertas funciones\n    modifier onlyAuthorized(address account) {\n        require(\n            _accountState[account] == AccountState.Authorized,\n            \"No autorizado\"\n        );\n        _;\n    }\n\n    // Modificador que verifica que el llamado no exista\n    modifier isNewCallId(bytes32 callId) {\n        require(_calls[callId].creator == address(0), \"El llamado ya existe\");\n        _;\n    }\n\n    // Modificador que verifica que el llamado existe\n    modifier isCallIdExists(bytes32 callId) {\n        require(_calls[callId].creator != address(0), \"El llamado no existe\");\n        _;\n    }\n\n    // Modificador que verifica que la cuenta no est registrada\n    modifier notRegistered(address account) {\n        require(\n            _accountState[account] == AccountState.NotRegistered,\n            \"Ya se ha registrado\"\n        );\n        _;\n    }\n\n    // Modificador que verifica que el ndice est dentro de los lmites\n    modifier isValidIndex(uint index, uint length) {\n        require(index < length, \"Indice fuera de rango\");\n        _;\n    }\n\n    /** Constructor del contrato.\n     *  Establece la direccin que despliega el contrato como duea de la factora.\n     */\n    constructor() {\n        _owner = msg.sender;\n    }\n\n    // Devuelve la direccin del dueo de la factora\n    function owner() public view returns (address) {\n        return _owner;\n    }\n\n    // Devuelve el llamado asociado con un callId\n    function calls(\n        bytes32 callId\n    ) public view returns (CallForProposals memory) {\n        return _calls[callId];\n    }\n\n    // Devuelve una lista de todos los callIds creados\n    function allCallIds() external view returns (bytes32[] memory) {\n        return _callIds;\n    }\n\n    // Devuelve la cantidad de cuentas que han creado llamados.\n    function creatorsCount() public view returns (uint256) {\n        return _creators.length;\n    }\n\n    // Devuelve la direccin de un creador `de la lista de creadores\n    function creators(\n        uint index\n    ) public view isValidIndex(index, _creators.length) returns (address) {\n        return _creators[index];\n    }\n\n    /// Devuelve el identificador del llamado que est en la posicin `index` de la lista de llamados creados por `creator`\n    function createdBy(\n        address creator,\n        uint256 index\n    )\n        public\n        view\n        isValidIndex(index, _callsCreatedBy[creator].length)\n        returns (bytes32)\n    {\n        return _callsCreatedBy[creator][index];\n    }\n\n    // Devuelve la cantidad de llamados creados por `creator`\n    function createdByCount(address creator) public view returns (uint256) {\n        return _callsCreatedBy[creator].length;\n    }\n\n    // Devuelve la cantidad de registraciones pendientes.\n    // Slo puede ser ejecutada por el dueo de la factora\n    // En caso contrario revierte con el mensaje \"Solo el creador puede hacer esta llamada\".\n    function pendingCount() public view onlyOwner returns (uint256) {\n        return _pending.length;\n    }\n\n    // Devuelve la registracin pendiente con ndice `index`\n    // Slo puede ser ejecutada por el dueo de la factora\n    function getPending(\n        uint256 index\n    )\n        public\n        view\n        onlyOwner\n        isValidIndex(index, _pending.length)\n        returns (address)\n    {\n        return _pending[index];\n    }\n\n    // Devuelve la lista de todas las registraciones pendientes.\n    // Slo puede ser ejecutada por el dueo de la factorfa\n    function getAllPending() public view onlyOwner returns (address[] memory) {\n        return _pending;\n    }\n\n    // Devuelve verdadero si una cuenta se ha registrado, tanto si su estado es pendiente como si ya se la ha autorizado.\n    function isRegistered(address account) public view returns (bool) {\n        AccountState state = _accountState[account];\n        return\n            state == AccountState.Pending || state == AccountState.Authorized;\n    }\n\n    // Devuelve verdadero si una cuenta est autorizada a crear llamados.\n    function isAuthorized(address account) public view returns (bool) {\n        return _accountState[account] == AccountState.Authorized;\n    }\n\n    /** Crea un llamado, con un identificador y un tiempo de cierre.\n     *  Si ya existe un llamado con ese identificador, revierte con el mensaje de error \"El llamado ya existe\"\n     *  Si el emisor no est autorizado a crear llamados, revierte con el mensaje \"No autorizado\"\n     */\n    function create(\n        bytes32 callId,\n        uint256 timestamp\n    ) public onlyAuthorized(msg.sender) returns (CFP) {\n        return _createCFP(callId, timestamp, msg.sender);\n    }\n\n    /**\n     * Crea un llamado, estableciendo a `creator` como creador del mismo.\n     * Slo puede ser invocada por el dueo de la factora.\n     * Si el emisor no est autorizado a crear llamados, revierte con el mensaje \"No autorizado\"\n     */\n    function createFor(\n        bytes32 callId,\n        uint256 timestamp,\n        address creator\n    ) public onlyOwner onlyAuthorized(creator) returns (CFP) {\n        return _createCFP(callId, timestamp, creator);\n    }\n\n    /** Funcin interna que ejecuta la lgica de creacin de un llamado\n     *  Crea un nuevo contrato CFP con la informacin dada.\n     *  Registra al creador y su llamado.\n     *  Emite el evento CFPCreated.\n     */\n    function _createCFP(\n        bytes32 callId_,\n        uint256 closingTime_,\n        address creator_\n    ) private isNewCallId(callId_) returns (CFP) {\n        CFP cfp = new CFP(callId_, closingTime_, creator_);\n        _calls[callId_] = CallForProposals(creator_, cfp);\n        _callIds.push(callId_);\n\n        if (_callsCreatedBy[creator_].length == 0) {\n            _creators.push(creator_);\n        }\n        _callsCreatedBy[creator_].push(callId_);\n\n        emit CFPCreated(creator_, callId_, cfp);\n        return cfp;\n    }\n\n    /** Permite a un usuario registrar una propuesta, para un llamado con identificador `callId`.\n     *  Si el llamado no existe, revierte con el mensaje \"El llamado no existe\".\n     *  Registra la propuesta en el llamado asociado con `callId` y pasa como creador la direccin del emisor del mensaje.\n     */\n    function registerProposal(\n        bytes32 callId,\n        bytes32 proposal\n    ) public isCallIdExists(callId) {\n        _calls[callId].cfp.registerProposalFor(proposal, msg.sender);\n    }\n\n    /** Permite que una cuenta se registre para poder crear llamados.\n     *  El registro queda en estado pendiente hasta que el dueo de la factora lo autorice.\n     *  Si ya se ha registrado, revierte con el mensaje \"Ya se ha registrado\"\n     */\n    function register() public notRegistered(msg.sender) {\n        _accountState[msg.sender] = AccountState.Pending;\n        _pending.push(msg.sender);\n    }\n\n    /** Autoriza a una cuenta a crear llamados.\n     *  Slo puede ser ejecutada por el dueo de la factora.\n     *  En caso contrario revierte con el mensaje \"Solo el creador puede hacer esta llamada\".\n     *  Si la cuenta se ha registrado y est pendiente, la quita de la lista de pendientes,\n     *  si no la registra automticamente.\n     */\n    function authorize(address creator) public onlyOwner {\n        AccountState state = _accountState[creator];\n        if (state == AccountState.NotRegistered) {\n            // Registro directo y autorizacin\n            _accountState[creator] = AccountState.Authorized;\n        } else if (state == AccountState.Pending) {\n            _removePending(creator);\n            _accountState[creator] = AccountState.Authorized;\n        }\n    }\n\n    /**\n     * Quita la autorizacin de una cuenta para crear llamados.\n     * Slo puede ser ejecutada por el dueo de la factora.\n     * Si la cuenta est registrada y pendiente, la quita de pendientes.\n     * Siempre marca la cuenta como no autorizada y no registrada.\n     */\n    function unauthorize(address creator) public onlyOwner {\n        if (_accountState[creator] == AccountState.Pending) {\n            _removePending(creator);\n        }\n        _accountState[creator] = AccountState.NotRegistered;\n    }\n\n    /**\n     * Funcin interna que elimina una cuenta de pendientes.\n     */\n    function _removePending(address account) private {\n        uint256 length = _pending.length;\n        for (uint256 i = 0; i < length; i++) {\n            if (_pending[i] == account) {\n                if (i < length - 1) {\n                    _pending[i] = _pending[length - 1];\n                }\n                _pending.pop();\n                break;\n            }\n        }\n    }\n}\n",
  "sourcePath": "/home/simonll4/Desktop/blockchain-llamosas/TP/Final/contracts/contracts/business/CFPFactory.sol",
  "compiler": {
    "name": "solc",
    "version": "0.8.19+commit.7dd6d404.Emscripten.clang"
  },
  "schemaVersion": "3.4.16",
  "updatedAt": "2025-07-24T03:10:26.060Z",
  "networkType": "ethereum",
  "devdoc": {
    "kind": "dev",
    "methods": {},
    "version": 1
  },
  "userdoc": {
    "kind": "user",
    "methods": {
      "authorize(address)": {
        "notice": "Autoriza a una cuenta a crear llamados.  Slo puede ser ejecutada por el dueo de la factora.  En caso contrario revierte con el mensaje \"Solo el creador puede hacer esta llamada\".  Si la cuenta se ha registrado y est pendiente, la quita de la lista de pendientes,  si no la registra automticamente."
      },
      "constructor": {
        "notice": "Constructor del contrato.  Establece la direccin que despliega el contrato como duea de la factora."
      },
      "create(bytes32,uint256)": {
        "notice": "Crea un llamado, con un identificador y un tiempo de cierre.  Si ya existe un llamado con ese identificador, revierte con el mensaje de error \"El llamado ya existe\"  Si el emisor no est autorizado a crear llamados, revierte con el mensaje \"No autorizado\""
      },
      "createFor(bytes32,uint256,address)": {
        "notice": "Crea un llamado, estableciendo a `creator` como creador del mismo. Slo puede ser invocada por el dueo de la factora. Si el emisor no est autorizado a crear llamados, revierte con el mensaje \"No autorizado\""
      },
      "createdBy(address,uint256)": {
        "notice": "Devuelve el identificador del llamado que est en la posicin `index` de la lista de llamados creados por `creator`"
      },
      "register()": {
        "notice": "Permite que una cuenta se registre para poder crear llamados.  El registro queda en estado pendiente hasta que el dueo de la factora lo autorice.  Si ya se ha registrado, revierte con el mensaje \"Ya se ha registrado\""
      },
      "registerProposal(bytes32,bytes32)": {
        "notice": "Permite a un usuario registrar una propuesta, para un llamado con identificador `callId`.  Si el llamado no existe, revierte con el mensaje \"El llamado no existe\".  Registra la propuesta en el llamado asociado con `callId` y pasa como creador la direccin del emisor del mensaje."
      },
      "unauthorize(address)": {
        "notice": "Quita la autorizacin de una cuenta para crear llamados. Slo puede ser ejecutada por el dueo de la factora. Si la cuenta est registrada y pendiente, la quita de pendientes. Siempre marca la cuenta como no autorizada y no registrada."
      }
    },
    "version": 1
  }
}