{
  "contractName": "ENSRegistry",
  "abi": [
    {
      "inputs": [],
      "stateMutability": "nonpayable",
      "type": "constructor"
    },
    {
      "anonymous": false,
      "inputs": [
        {
          "indexed": true,
          "internalType": "bytes32",
          "name": "node",
          "type": "bytes32"
        },
        {
          "indexed": true,
          "internalType": "bytes32",
          "name": "label",
          "type": "bytes32"
        },
        {
          "indexed": false,
          "internalType": "address",
          "name": "owner",
          "type": "address"
        }
      ],
      "name": "NewOwner",
      "type": "event"
    },
    {
      "anonymous": false,
      "inputs": [
        {
          "indexed": true,
          "internalType": "bytes32",
          "name": "node",
          "type": "bytes32"
        },
        {
          "indexed": false,
          "internalType": "address",
          "name": "resolver",
          "type": "address"
        }
      ],
      "name": "NewResolver",
      "type": "event"
    },
    {
      "anonymous": false,
      "inputs": [
        {
          "indexed": true,
          "internalType": "bytes32",
          "name": "node",
          "type": "bytes32"
        },
        {
          "indexed": false,
          "internalType": "uint64",
          "name": "ttl",
          "type": "uint64"
        }
      ],
      "name": "NewTTL",
      "type": "event"
    },
    {
      "anonymous": false,
      "inputs": [
        {
          "indexed": true,
          "internalType": "bytes32",
          "name": "node",
          "type": "bytes32"
        },
        {
          "indexed": false,
          "internalType": "address",
          "name": "owner",
          "type": "address"
        }
      ],
      "name": "Transfer",
      "type": "event"
    },
    {
      "inputs": [
        {
          "internalType": "bytes32",
          "name": "_node",
          "type": "bytes32"
        },
        {
          "internalType": "address",
          "name": "_owner",
          "type": "address"
        }
      ],
      "name": "setOwner",
      "outputs": [],
      "stateMutability": "nonpayable",
      "type": "function"
    },
    {
      "inputs": [
        {
          "internalType": "bytes32",
          "name": "_node",
          "type": "bytes32"
        },
        {
          "internalType": "bytes32",
          "name": "label",
          "type": "bytes32"
        },
        {
          "internalType": "address",
          "name": "_owner",
          "type": "address"
        }
      ],
      "name": "setSubnodeOwner",
      "outputs": [],
      "stateMutability": "nonpayable",
      "type": "function"
    },
    {
      "inputs": [
        {
          "internalType": "bytes32",
          "name": "_node",
          "type": "bytes32"
        },
        {
          "internalType": "address",
          "name": "_resolver",
          "type": "address"
        }
      ],
      "name": "setResolver",
      "outputs": [],
      "stateMutability": "nonpayable",
      "type": "function"
    },
    {
      "inputs": [
        {
          "internalType": "bytes32",
          "name": "_node",
          "type": "bytes32"
        },
        {
          "internalType": "uint64",
          "name": "_ttl",
          "type": "uint64"
        }
      ],
      "name": "setTTL",
      "outputs": [],
      "stateMutability": "nonpayable",
      "type": "function"
    },
    {
      "inputs": [
        {
          "internalType": "bytes32",
          "name": "_node",
          "type": "bytes32"
        }
      ],
      "name": "owner",
      "outputs": [
        {
          "internalType": "address",
          "name": "",
          "type": "address"
        }
      ],
      "stateMutability": "view",
      "type": "function",
      "constant": true
    },
    {
      "inputs": [
        {
          "internalType": "bytes32",
          "name": "_node",
          "type": "bytes32"
        }
      ],
      "name": "resolver",
      "outputs": [
        {
          "internalType": "address",
          "name": "",
          "type": "address"
        }
      ],
      "stateMutability": "view",
      "type": "function",
      "constant": true
    },
    {
      "inputs": [
        {
          "internalType": "bytes32",
          "name": "_node",
          "type": "bytes32"
        }
      ],
      "name": "ttl",
      "outputs": [
        {
          "internalType": "uint64",
          "name": "",
          "type": "uint64"
        }
      ],
      "stateMutability": "view",
      "type": "function",
      "constant": true
    }
  ],
  "bytecode": "0x608060405234801561001057600080fd5b50336000808060001b815260200190815260200160002060000160006101000a81548173ffffffffffffffffffffffffffffffffffffffff021916908373ffffffffffffffffffffffffffffffffffffffff1602179055506108f7806100776000396000f3fe608060405234801561001057600080fd5b506004361061007d5760003560e01c806314ab90381161005b57806314ab9038146100fe57806316a25cbd1461011a5780631896f70a1461014a5780635b0fc9c3146101665761007d565b80630178b8bf1461008257806302571be3146100b257806306ab5923146100e2575b600080fd5b61009c60048036038101906100979190610682565b610182565b6040516100a991906106f0565b60405180910390f35b6100cc60048036038101906100c79190610682565b6101c1565b6040516100d991906106f0565b60405180910390f35b6100fc60048036038101906100f79190610737565b610200565b005b610118600480360381019061011391906107ca565b61032f565b005b610134600480360381019061012f9190610682565b610416565b6040516101419190610819565b60405180910390f35b610164600480360381019061015f9190610834565b610449565b005b610180600480360381019061017b9190610834565b610548565b005b600080600083815260200190815260200160002060010160009054906101000a900473ffffffffffffffffffffffffffffffffffffffff169050919050565b600080600083815260200190815260200160002060000160009054906101000a900473ffffffffffffffffffffffffffffffffffffffff169050919050565b823373ffffffffffffffffffffffffffffffffffffffff1660008083815260200190815260200160002060000160009054906101000a900473ffffffffffffffffffffffffffffffffffffffff1673ffffffffffffffffffffffffffffffffffffffff161461026e57600080fd5b60008484604051602001610283929190610895565b60405160208183030381529060405280519060200120905083857fce0457fe73731f824cc272376169235128c118b49d344817417c6d108d155e82856040516102cc91906106f0565b60405180910390a38260008083815260200190815260200160002060000160006101000a81548173ffffffffffffffffffffffffffffffffffffffff021916908373ffffffffffffffffffffffffffffffffffffffff1602179055505050505050565b813373ffffffffffffffffffffffffffffffffffffffff1660008083815260200190815260200160002060000160009054906101000a900473ffffffffffffffffffffffffffffffffffffffff1673ffffffffffffffffffffffffffffffffffffffff161461039d57600080fd5b827f1d4f9bbfc9cab89d66e1a1562f2233ccbf1308cb4f63de2ead5787adddb8fa68836040516103cd9190610819565b60405180910390a28160008085815260200190815260200160002060010160146101000a81548167ffffffffffffffff021916908367ffffffffffffffff160217905550505050565b600080600083815260200190815260200160002060010160149054906101000a900467ffffffffffffffff169050919050565b813373ffffffffffffffffffffffffffffffffffffffff1660008083815260200190815260200160002060000160009054906101000a900473ffffffffffffffffffffffffffffffffffffffff1673ffffffffffffffffffffffffffffffffffffffff16146104b757600080fd5b827f335721b01866dc23fbee8b6b2c7b1e14d6f05c28cd35a2c934239f94095602a0836040516104e791906106f0565b60405180910390a28160008085815260200190815260200160002060010160006101000a81548173ffffffffffffffffffffffffffffffffffffffff021916908373ffffffffffffffffffffffffffffffffffffffff160217905550505050565b813373ffffffffffffffffffffffffffffffffffffffff1660008083815260200190815260200160002060000160009054906101000a900473ffffffffffffffffffffffffffffffffffffffff1673ffffffffffffffffffffffffffffffffffffffff16146105b657600080fd5b827fd4735d920b0f87494915f556dd9b54c8f309026070caea5c737245152564d266836040516105e691906106f0565b60405180910390a28160008085815260200190815260200160002060000160006101000a81548173ffffffffffffffffffffffffffffffffffffffff021916908373ffffffffffffffffffffffffffffffffffffffff160217905550505050565b600080fd5b6000819050919050565b61065f8161064c565b811461066a57600080fd5b50565b60008135905061067c81610656565b92915050565b60006020828403121561069857610697610647565b5b60006106a68482850161066d565b91505092915050565b600073ffffffffffffffffffffffffffffffffffffffff82169050919050565b60006106da826106af565b9050919050565b6106ea816106cf565b82525050565b600060208201905061070560008301846106e1565b92915050565b610714816106cf565b811461071f57600080fd5b50565b6000813590506107318161070b565b92915050565b6000806000606084860312156107505761074f610647565b5b600061075e8682870161066d565b935050602061076f8682870161066d565b925050604061078086828701610722565b9150509250925092565b600067ffffffffffffffff82169050919050565b6107a78161078a565b81146107b257600080fd5b50565b6000813590506107c48161079e565b92915050565b600080604083850312156107e1576107e0610647565b5b60006107ef8582860161066d565b9250506020610800858286016107b5565b9150509250929050565b6108138161078a565b82525050565b600060208201905061082e600083018461080a565b92915050565b6000806040838503121561084b5761084a610647565b5b60006108598582860161066d565b925050602061086a85828601610722565b9150509250929050565b6000819050919050565b61088f61088a8261064c565b610874565b82525050565b60006108a1828561087e565b6020820191506108b1828461087e565b602082019150819050939250505056fea26469706673582212203724e43d25028d3561a900a4c84bb8b101e4387f13a7f4274da9bf95da2c474464736f6c63430008130033",
  "immutableReferences": {},
  "source": "// SPDX-License-Identifier: MIT\npragma solidity >=0.8.0;\n\nimport \"./ENS.sol\";\n\n/**\n * The ENS registry contract.\n */\ncontract ENSRegistry is ENS {\n    struct Record {\n        address owner;\n        address resolver;\n        uint64 ttl;\n    }\n\n    mapping (bytes32 => Record) records;\n\n    // Permits modifications only by the owner of the specified node.\n    modifier only_owner(bytes32 _node) {\n        require(records[_node].owner == msg.sender);\n        _;\n    }\n\n    /**\n     * @dev Constructs a new ENS registrar.\n     */\n    constructor() {\n        records[0x0].owner = msg.sender;\n    }\n\n    /**\n     * @dev Transfers ownership of a node to a new address. May only be called by the current owner of the node.\n     * @param _node The node to transfer ownership of.\n     * @param _owner The address of the new owner.\n     */\n    function setOwner(bytes32 _node, address _owner) external only_owner(_node) {\n        emit Transfer(_node, _owner);\n        records[_node].owner = _owner;\n    }\n\n    /**\n     * @dev Transfers ownership of a subnode keccak256(_node, label) to a new address. May only be called by the owner of the parent node.\n     * @param _node The parent node.\n     * @param label The hash of the label specifying the subnode.\n     * @param _owner The address of the new owner.\n     */\n    function setSubnodeOwner(bytes32 _node, bytes32 label, address _owner) external only_owner(_node) {\n        bytes32 subnode = keccak256(abi.encodePacked(_node, label));\n        emit NewOwner(_node, label, _owner);\n        records[subnode].owner = _owner;\n    }\n\n    /**\n     * @dev Sets the resolver address for the specified node.\n     * @param _node The node to update.\n     * @param _resolver The address of the resolver.\n     */\n    function setResolver(bytes32 _node, address _resolver) external only_owner(_node) {\n        emit NewResolver(_node, _resolver);   \n        records[_node].resolver = _resolver;\n    }\n\n    /**\n     * @dev Sets the TTL for the specified node.\n     * @param _node The node to update.\n     * @param _ttl The TTL in seconds.\n     */\n    function setTTL(bytes32 _node, uint64 _ttl) external only_owner(_node) {\n        emit NewTTL(_node, _ttl);\n        records[_node].ttl = _ttl;\n    }\n\n    /**\n     * @dev Returns the address that owns the specified node.\n     * @param _node The specified node.\n     * @return address of the owner.\n     */\n    function owner(bytes32 _node) external view returns (address) {\n        return records[_node].owner;\n    }\n\n    /**\n     * @dev Returns the address of the resolver for the specified node.\n     * @param _node The specified node.\n     * @return address of the resolver.\n     */\n    function resolver(bytes32 _node) external view returns (address) {\n        return records[_node].resolver;\n    }\n\n    /**\n     * @dev Returns the TTL of a node, and any records associated with it.\n     * @param _node The specified node.\n     * @return ttl of the node.\n     */\n    function ttl(bytes32 _node) external view returns (uint64) {\n        return records[_node].ttl;\n    }\n\n}\n",
  "sourcePath": "/home/simonll4/Desktop/blockchain-llamosas/TP/Final/contracts/contracts/ens/ENSRegistry.sol",
  "compiler": {
    "name": "solc",
    "version": "0.8.19+commit.7dd6d404.Emscripten.clang"
  },
  "schemaVersion": "3.4.16",
  "updatedAt": "2025-07-24T03:10:25.738Z",
  "networkType": "ethereum",
  "devdoc": {
    "kind": "dev",
    "methods": {
      "constructor": {
        "details": "Constructs a new ENS registrar."
      },
      "owner(bytes32)": {
        "details": "Returns the address that owns the specified node.",
        "params": {
          "_node": "The specified node."
        },
        "returns": {
          "_0": "address of the owner."
        }
      },
      "resolver(bytes32)": {
        "details": "Returns the address of the resolver for the specified node.",
        "params": {
          "_node": "The specified node."
        },
        "returns": {
          "_0": "address of the resolver."
        }
      },
      "setOwner(bytes32,address)": {
        "details": "Transfers ownership of a node to a new address. May only be called by the current owner of the node.",
        "params": {
          "_node": "The node to transfer ownership of.",
          "_owner": "The address of the new owner."
        }
      },
      "setResolver(bytes32,address)": {
        "details": "Sets the resolver address for the specified node.",
        "params": {
          "_node": "The node to update.",
          "_resolver": "The address of the resolver."
        }
      },
      "setSubnodeOwner(bytes32,bytes32,address)": {
        "details": "Transfers ownership of a subnode keccak256(_node, label) to a new address. May only be called by the owner of the parent node.",
        "params": {
          "_node": "The parent node.",
          "_owner": "The address of the new owner.",
          "label": "The hash of the label specifying the subnode."
        }
      },
      "setTTL(bytes32,uint64)": {
        "details": "Sets the TTL for the specified node.",
        "params": {
          "_node": "The node to update.",
          "_ttl": "The TTL in seconds."
        }
      },
      "ttl(bytes32)": {
        "details": "Returns the TTL of a node, and any records associated with it.",
        "params": {
          "_node": "The specified node."
        },
        "returns": {
          "_0": "ttl of the node."
        }
      }
    },
    "version": 1
  },
  "userdoc": {
    "kind": "user",
    "methods": {},
    "notice": "The ENS registry contract.",
    "version": 1
  }
}