{
  "contractName": "FIFSRegistrar",
  "abi": [
    {
      "inputs": [
        {
          "internalType": "contract ENS",
          "name": "ensAddr",
          "type": "address"
        },
        {
          "internalType": "bytes32",
          "name": "node",
          "type": "bytes32"
        }
      ],
      "stateMutability": "nonpayable",
      "type": "constructor"
    },
    {
      "inputs": [
        {
          "internalType": "bytes32",
          "name": "label",
          "type": "bytes32"
        },
        {
          "internalType": "address",
          "name": "owner",
          "type": "address"
        }
      ],
      "name": "register",
      "outputs": [],
      "stateMutability": "nonpayable",
      "type": "function"
    }
  ],
  "bytecode": "0x608060405234801561001057600080fd5b506040516105a43803806105a48339818101604052810190610032919061012b565b816000806101000a81548173ffffffffffffffffffffffffffffffffffffffff021916908373ffffffffffffffffffffffffffffffffffffffff16021790555080600181905550505061016b565b600080fd5b600073ffffffffffffffffffffffffffffffffffffffff82169050919050565b60006100b082610085565b9050919050565b60006100c2826100a5565b9050919050565b6100d2816100b7565b81146100dd57600080fd5b50565b6000815190506100ef816100c9565b92915050565b6000819050919050565b610108816100f5565b811461011357600080fd5b50565b600081519050610125816100ff565b92915050565b6000806040838503121561014257610141610080565b5b6000610150858286016100e0565b925050602061016185828601610116565b9150509250929050565b61042a8061017a6000396000f3fe608060405234801561001057600080fd5b506004361061002b5760003560e01c8063d22057a914610030575b600080fd5b61004a600480360381019061004591906102b5565b61004c565b005b8160008060009054906101000a900473ffffffffffffffffffffffffffffffffffffffff1673ffffffffffffffffffffffffffffffffffffffff166302571be3600154846040516020016100a1929190610316565b604051602081830303815290604052805190602001206040518263ffffffff1660e01b81526004016100d39190610351565b602060405180830381865afa1580156100f0573d6000803e3d6000fd5b505050506040513d601f19601f820116820180604052508101906101149190610381565b9050600073ffffffffffffffffffffffffffffffffffffffff168173ffffffffffffffffffffffffffffffffffffffff16148061017c57503373ffffffffffffffffffffffffffffffffffffffff168173ffffffffffffffffffffffffffffffffffffffff16145b61018557600080fd5b60008054906101000a900473ffffffffffffffffffffffffffffffffffffffff1673ffffffffffffffffffffffffffffffffffffffff166306ab592360015486866040518463ffffffff1660e01b81526004016101e4939291906103bd565b600060405180830381600087803b1580156101fe57600080fd5b505af1158015610212573d6000803e3d6000fd5b5050505050505050565b600080fd5b6000819050919050565b61023481610221565b811461023f57600080fd5b50565b6000813590506102518161022b565b92915050565b600073ffffffffffffffffffffffffffffffffffffffff82169050919050565b600061028282610257565b9050919050565b61029281610277565b811461029d57600080fd5b50565b6000813590506102af81610289565b92915050565b600080604083850312156102cc576102cb61021c565b5b60006102da85828601610242565b92505060206102eb858286016102a0565b9150509250929050565b6000819050919050565b61031061030b82610221565b6102f5565b82525050565b600061032282856102ff565b60208201915061033282846102ff565b6020820191508190509392505050565b61034b81610221565b82525050565b60006020820190506103666000830184610342565b92915050565b60008151905061037b81610289565b92915050565b6000602082840312156103975761039661021c565b5b60006103a58482850161036c565b91505092915050565b6103b781610277565b82525050565b60006060820190506103d26000830186610342565b6103df6020830185610342565b6103ec60408301846103ae565b94935050505056fea26469706673582212208817e70601167f63efbd7a146aa256e7c748ae94753b480c01428a5f85aa430a64736f6c63430008130033",
  "immutableReferences": {},
  "source": "// SPDX-License-Identifier: MIT\npragma solidity >=0.8.0;\n\nimport \"./ENS.sol\";\n\n/**\n * A registrar that allocates subdomains to the first person to claim them.\n */\ncontract FIFSRegistrar {\n    ENS ens;\n    bytes32 rootNode;\n\n    modifier only_owner(bytes32 label) {\n        address currentOwner = ens.owner(keccak256(abi.encodePacked(rootNode, label)));\n        require(currentOwner == address(0x0) || currentOwner == msg.sender);\n        _;\n    }\n\n    /**\n     * Constructor.\n     * @param ensAddr The address of the ENS registry.\n     * @param node The node that this registrar administers.\n     */\n    constructor(ENS ensAddr, bytes32 node) {\n        ens = ensAddr;\n        rootNode = node;\n    }\n\n    /**\n     * Register a name, or change the owner of an existing registration.\n     * @param label The hash of the label to register.\n     * @param owner The address of the new owner.\n     */\n    function register(bytes32 label, address owner) public only_owner(label) {\n        ens.setSubnodeOwner(rootNode, label, owner);\n    }\n}\n",
  "sourcePath": "/home/simonll4/Desktop/blockchain-llamosas/TP/Final/contracts/contracts/ens/FIFSRegistrar.sol",
  "compiler": {
    "name": "solc",
    "version": "0.8.19+commit.7dd6d404.Emscripten.clang"
  },
  "schemaVersion": "3.4.16",
  "updatedAt": "2025-07-22T17:24:19.840Z",
  "networkType": "ethereum",
  "devdoc": {
    "kind": "dev",
    "methods": {
      "constructor": {
        "params": {
          "ensAddr": "The address of the ENS registry.",
          "node": "The node that this registrar administers."
        }
      },
      "register(bytes32,address)": {
        "params": {
          "label": "The hash of the label to register.",
          "owner": "The address of the new owner."
        }
      }
    },
    "version": 1
  },
  "userdoc": {
    "kind": "user",
    "methods": {
      "constructor": {
        "notice": "Constructor."
      },
      "register(bytes32,address)": {
        "notice": "Register a name, or change the owner of an existing registration."
      }
    },
    "notice": "A registrar that allocates subdomains to the first person to claim them.",
    "version": 1
  }
}