{
  "contractName": "LlamadosRegistrar",
  "abi": [
    {
      "inputs": [
        {
          "internalType": "contract ENS",
          "name": "_ens",
          "type": "address"
        },
        {
          "internalType": "bytes32",
          "name": "_node",
          "type": "bytes32"
        }
      ],
      "stateMutability": "nonpayable",
      "type": "constructor"
    },
    {
      "inputs": [
        {
          "internalType": "bytes32",
          "name": "label",
          "type": "bytes32"
        },
        {
          "internalType": "address",
          "name": "owner",
          "type": "address"
        }
      ],
      "name": "register",
      "outputs": [],
      "stateMutability": "nonpayable",
      "type": "function"
    }
  ],
  "bytecode": "0x608060405234801561001057600080fd5b506040516105a83803806105a88339818101604052810190610032919061012f565b8181816000806101000a81548173ffffffffffffffffffffffffffffffffffffffff021916908373ffffffffffffffffffffffffffffffffffffffff160217905550806001819055505050505061016f565b600080fd5b600073ffffffffffffffffffffffffffffffffffffffff82169050919050565b60006100b482610089565b9050919050565b60006100c6826100a9565b9050919050565b6100d6816100bb565b81146100e157600080fd5b50565b6000815190506100f3816100cd565b92915050565b6000819050919050565b61010c816100f9565b811461011757600080fd5b50565b60008151905061012981610103565b92915050565b6000806040838503121561014657610145610084565b5b6000610154858286016100e4565b92505060206101658582860161011a565b9150509250929050565b61042a8061017e6000396000f3fe608060405234801561001057600080fd5b506004361061002b5760003560e01c8063d22057a914610030575b600080fd5b61004a600480360381019061004591906102b5565b61004c565b005b8160008060009054906101000a900473ffffffffffffffffffffffffffffffffffffffff1673ffffffffffffffffffffffffffffffffffffffff166302571be3600154846040516020016100a1929190610316565b604051602081830303815290604052805190602001206040518263ffffffff1660e01b81526004016100d39190610351565b602060405180830381865afa1580156100f0573d6000803e3d6000fd5b505050506040513d601f19601f820116820180604052508101906101149190610381565b9050600073ffffffffffffffffffffffffffffffffffffffff168173ffffffffffffffffffffffffffffffffffffffff16148061017c57503373ffffffffffffffffffffffffffffffffffffffff168173ffffffffffffffffffffffffffffffffffffffff16145b61018557600080fd5b60008054906101000a900473ffffffffffffffffffffffffffffffffffffffff1673ffffffffffffffffffffffffffffffffffffffff166306ab592360015486866040518463ffffffff1660e01b81526004016101e4939291906103bd565b600060405180830381600087803b1580156101fe57600080fd5b505af1158015610212573d6000803e3d6000fd5b5050505050505050565b600080fd5b6000819050919050565b61023481610221565b811461023f57600080fd5b50565b6000813590506102518161022b565b92915050565b600073ffffffffffffffffffffffffffffffffffffffff82169050919050565b600061028282610257565b9050919050565b61029281610277565b811461029d57600080fd5b50565b6000813590506102af81610289565b92915050565b600080604083850312156102cc576102cb61021c565b5b60006102da85828601610242565b92505060206102eb858286016102a0565b9150509250929050565b6000819050919050565b61031061030b82610221565b6102f5565b82525050565b600061032282856102ff565b60208201915061033282846102ff565b6020820191508190509392505050565b61034b81610221565b82525050565b60006020820190506103666000830184610342565b92915050565b60008151905061037b81610289565b92915050565b6000602082840312156103975761039661021c565b5b60006103a58482850161036c565b91505092915050565b6103b781610277565b82525050565b60006060820190506103d26000830186610342565b6103df6020830185610342565b6103ec60408301846103ae565b94935050505056fea26469706673582212204a1a83d515b9f74c6b39cf803ea29af5f1099af6d308ea83ba2674fec387200464736f6c63430008130033",
  "immutableReferences": {},
  "source": "// SPDX-License-Identifier: MIT\npragma solidity ^0.8.0;\n\nimport \"./FIFSRegistrar.sol\";\n\n/**\n * @title LlamadosRegistrar\n * @dev Registrador especfico para el dominio llamados.cfp\n */\ncontract LlamadosRegistrar is FIFSRegistrar {\n    constructor(ENS _ens, bytes32 _node) FIFSRegistrar(_ens, _node) {}\n} ",
  "sourcePath": "/home/simonll4/Desktop/blockchain-llamosas/TP/Final/contracts/contracts/ens/LlamadosRegistrar.sol",
  "compiler": {
    "name": "solc",
    "version": "0.8.19+commit.7dd6d404.Emscripten.clang"
  },
  "schemaVersion": "3.4.16",
  "updatedAt": "2025-07-07T23:56:10.400Z",
  "networkType": "ethereum",
  "devdoc": {
    "details": "Registrador especfico para el dominio llamados.cfp",
    "kind": "dev",
    "methods": {
      "register(bytes32,address)": {
        "params": {
          "label": "The hash of the label to register.",
          "owner": "The address of the new owner."
        }
      }
    },
    "title": "LlamadosRegistrar",
    "version": 1
  },
  "userdoc": {
    "kind": "user",
    "methods": {
      "register(bytes32,address)": {
        "notice": "Register a name, or change the owner of an existing registration."
      }
    },
    "version": 1
  }
}