{
  "contractName": "ReverseRegistrar",
  "abi": [
    {
      "inputs": [
        {
          "internalType": "contract ENS",
          "name": "ensAddr",
          "type": "address"
        },
        {
          "internalType": "contract Resolver",
          "name": "resolverAddr",
          "type": "address"
        }
      ],
      "stateMutability": "nonpayable",
      "type": "constructor"
    },
    {
      "inputs": [],
      "name": "ADDR_REVERSE_NODE",
      "outputs": [
        {
          "internalType": "bytes32",
          "name": "",
          "type": "bytes32"
        }
      ],
      "stateMutability": "view",
      "type": "function",
      "constant": true
    },
    {
      "inputs": [],
      "name": "defaultResolver",
      "outputs": [
        {
          "internalType": "contract Resolver",
          "name": "",
          "type": "address"
        }
      ],
      "stateMutability": "view",
      "type": "function",
      "constant": true
    },
    {
      "inputs": [],
      "name": "ens",
      "outputs": [
        {
          "internalType": "contract ENS",
          "name": "",
          "type": "address"
        }
      ],
      "stateMutability": "view",
      "type": "function",
      "constant": true
    },
    {
      "inputs": [
        {
          "internalType": "address",
          "name": "owner",
          "type": "address"
        }
      ],
      "name": "claim",
      "outputs": [
        {
          "internalType": "bytes32",
          "name": "",
          "type": "bytes32"
        }
      ],
      "stateMutability": "nonpayable",
      "type": "function"
    },
    {
      "inputs": [
        {
          "internalType": "address",
          "name": "owner",
          "type": "address"
        },
        {
          "internalType": "address",
          "name": "resolver",
          "type": "address"
        }
      ],
      "name": "claimWithResolver",
      "outputs": [
        {
          "internalType": "bytes32",
          "name": "",
          "type": "bytes32"
        }
      ],
      "stateMutability": "nonpayable",
      "type": "function"
    },
    {
      "inputs": [
        {
          "internalType": "string",
          "name": "name",
          "type": "string"
        }
      ],
      "name": "setName",
      "outputs": [
        {
          "internalType": "bytes32",
          "name": "",
          "type": "bytes32"
        }
      ],
      "stateMutability": "nonpayable",
      "type": "function"
    },
    {
      "inputs": [
        {
          "internalType": "address",
          "name": "addr",
          "type": "address"
        },
        {
          "internalType": "string",
          "name": "name",
          "type": "string"
        }
      ],
      "name": "setNameFor",
      "outputs": [
        {
          "internalType": "bytes32",
          "name": "reverseNode",
          "type": "bytes32"
        }
      ],
      "stateMutability": "nonpayable",
      "type": "function"
    },
    {
      "inputs": [
        {
          "internalType": "address",
          "name": "addr",
          "type": "address"
        }
      ],
      "name": "node",
      "outputs": [
        {
          "internalType": "bytes32",
          "name": "",
          "type": "bytes32"
        }
      ],
      "stateMutability": "pure",
      "type": "function",
      "constant": true
    }
  ],
  "bytecode": "0x60806040523480156200001157600080fd5b5060405162001acf38038062001acf833981810160405281019062000037919062000303565b816000806101000a81548173ffffffffffffffffffffffffffffffffffffffff021916908373ffffffffffffffffffffffffffffffffffffffff16021790555080600160006101000a81548173ffffffffffffffffffffffffffffffffffffffff021916908373ffffffffffffffffffffffffffffffffffffffff16021790555060008060009054906101000a900473ffffffffffffffffffffffffffffffffffffffff1673ffffffffffffffffffffffffffffffffffffffff166302571be37f91d1777781884d03a6757a803996e38de2a42967fb37eeaca72729271025a9e260001b6040518263ffffffff1660e01b815260040162000139919062000365565b602060405180830381865afa15801562000157573d6000803e3d6000fd5b505050506040513d601f19601f820116820180604052508101906200017d9190620003b3565b9050600073ffffffffffffffffffffffffffffffffffffffff168173ffffffffffffffffffffffffffffffffffffffff161462000237578073ffffffffffffffffffffffffffffffffffffffff16631e83409a336040518263ffffffff1660e01b8152600401620001ef9190620003f6565b6020604051808303816000875af11580156200020f573d6000803e3d6000fd5b505050506040513d601f19601f8201168201806040525081019062000235919062000444565b505b50505062000476565b600080fd5b600073ffffffffffffffffffffffffffffffffffffffff82169050919050565b6000620002728262000245565b9050919050565b6000620002868262000265565b9050919050565b620002988162000279565b8114620002a457600080fd5b50565b600081519050620002b8816200028d565b92915050565b6000620002cb8262000265565b9050919050565b620002dd81620002be565b8114620002e957600080fd5b50565b600081519050620002fd81620002d2565b92915050565b600080604083850312156200031d576200031c62000240565b5b60006200032d85828601620002a7565b92505060206200034085828601620002ec565b9150509250929050565b6000819050919050565b6200035f816200034a565b82525050565b60006020820190506200037c600083018462000354565b92915050565b6200038d8162000265565b81146200039957600080fd5b50565b600081519050620003ad8162000382565b92915050565b600060208284031215620003cc57620003cb62000240565b5b6000620003dc848285016200039c565b91505092915050565b620003f08162000265565b82525050565b60006020820190506200040d6000830184620003e5565b92915050565b6200041e816200034a565b81146200042a57600080fd5b50565b6000815190506200043e8162000413565b92915050565b6000602082840312156200045d576200045c62000240565b5b60006200046d848285016200042d565b91505092915050565b61164980620004866000396000f3fe608060405234801561001057600080fd5b50600436106100885760003560e01c80637cf8a2eb1161005b5780637cf8a2eb1461013b578063828eab0e14610159578063bffbe61c14610177578063c47f0027146101a757610088565b80630f5a54661461008d5780631e83409a146100bd5780633f15457f146100ed57806346b99be41461010b575b600080fd5b6100a760048036038101906100a29190610e65565b6101d7565b6040516100b49190610ebe565b60405180910390f35b6100d760048036038101906100d29190610ed9565b610644565b6040516100e49190610ebe565b60405180910390f35b6100f5610658565b6040516101029190610f65565b60405180910390f35b61012560048036038101906101209190610fe5565b61067c565b6040516101329190610ebe565b60405180910390f35b610143610c16565b6040516101509190610ebe565b60405180910390f35b610161610c3d565b60405161016e9190611066565b60405180910390f35b610191600480360381019061018c9190610ed9565b610c63565b60405161019e9190610ebe565b60405180910390f35b6101c160048036038101906101bc91906111c2565b610cc0565b6040516101ce9190610ebe565b60405180910390f35b6000806101e333610d89565b905060007f91d1777781884d03a6757a803996e38de2a42967fb37eeaca72729271025a9e260001b8260405160200161021d92919061122c565b60405160208183030381529060405280519060200120905060008060009054906101000a900473ffffffffffffffffffffffffffffffffffffffff1673ffffffffffffffffffffffffffffffffffffffff166302571be3836040518263ffffffff1660e01b81526004016102919190610ebe565b602060405180830381865afa1580156102ae573d6000803e3d6000fd5b505050506040513d601f19601f820116820180604052508101906102d2919061126d565b9050600073ffffffffffffffffffffffffffffffffffffffff168573ffffffffffffffffffffffffffffffffffffffff16141580156103d6575060008054906101000a900473ffffffffffffffffffffffffffffffffffffffff1673ffffffffffffffffffffffffffffffffffffffff16630178b8bf836040518263ffffffff1660e01b81526004016103659190610ebe565b602060405180830381865afa158015610382573d6000803e3d6000fd5b505050506040513d601f19601f820116820180604052508101906103a6919061126d565b73ffffffffffffffffffffffffffffffffffffffff168573ffffffffffffffffffffffffffffffffffffffff1614155b15610552573073ffffffffffffffffffffffffffffffffffffffff168173ffffffffffffffffffffffffffffffffffffffff16146104c45760008054906101000a900473ffffffffffffffffffffffffffffffffffffffff1673ffffffffffffffffffffffffffffffffffffffff166306ab59237f91d1777781884d03a6757a803996e38de2a42967fb37eeaca72729271025a9e260001b85306040518463ffffffff1660e01b815260040161048e939291906112a9565b600060405180830381600087803b1580156104a857600080fd5b505af11580156104bc573d6000803e3d6000fd5b505050503090505b60008054906101000a900473ffffffffffffffffffffffffffffffffffffffff1673ffffffffffffffffffffffffffffffffffffffff16631896f70a83876040518363ffffffff1660e01b815260040161051f9291906112e0565b600060405180830381600087803b15801561053957600080fd5b505af115801561054d573d6000803e3d6000fd5b505050505b8573ffffffffffffffffffffffffffffffffffffffff168173ffffffffffffffffffffffffffffffffffffffff16146106385760008054906101000a900473ffffffffffffffffffffffffffffffffffffffff1673ffffffffffffffffffffffffffffffffffffffff166306ab59237f91d1777781884d03a6757a803996e38de2a42967fb37eeaca72729271025a9e260001b85896040518463ffffffff1660e01b8152600401610605939291906112a9565b600060405180830381600087803b15801561061f57600080fd5b505af1158015610633573d6000803e3d6000fd5b505050505b81935050505092915050565b60006106518260006101d7565b9050919050565b60008054906101000a900473ffffffffffffffffffffffffffffffffffffffff1681565b6000808473ffffffffffffffffffffffffffffffffffffffff163b116106d7576040517f08c379a00000000000000000000000000000000000000000000000000000000081526004016106ce90611366565b60405180910390fd5b8373ffffffffffffffffffffffffffffffffffffffff16638da5cb5b6040518163ffffffff1660e01b8152600401602060405180830381865afa92505050801561073f57506040513d601f19601f8201168201806040525081019061073c919061126d565b60015b61077e576040517f08c379a0000000000000000000000000000000000000000000000000000000008152600401610775906113f8565b60405180910390fd5b3373ffffffffffffffffffffffffffffffffffffffff168173ffffffffffffffffffffffffffffffffffffffff16146107ec576040517f08c379a00000000000000000000000000000000000000000000000000000000081526004016107e390611464565b60405180910390fd5b5060006107f885610d89565b90507f91d1777781884d03a6757a803996e38de2a42967fb37eeaca72729271025a9e260001b8160405160200161083092919061122c565b6040516020818303038152906040528051906020012091503073ffffffffffffffffffffffffffffffffffffffff1660008054906101000a900473ffffffffffffffffffffffffffffffffffffffff1673ffffffffffffffffffffffffffffffffffffffff166302571be3846040518263ffffffff1660e01b81526004016108b89190610ebe565b602060405180830381865afa1580156108d5573d6000803e3d6000fd5b505050506040513d601f19601f820116820180604052508101906108f9919061126d565b73ffffffffffffffffffffffffffffffffffffffff1614610ace5760008054906101000a900473ffffffffffffffffffffffffffffffffffffffff1673ffffffffffffffffffffffffffffffffffffffff166306ab59237f91d1777781884d03a6757a803996e38de2a42967fb37eeaca72729271025a9e260001b83306040518463ffffffff1660e01b8152600401610994939291906112a9565b600060405180830381600087803b1580156109ae57600080fd5b505af11580156109c2573d6000803e3d6000fd5b505050503073ffffffffffffffffffffffffffffffffffffffff1660008054906101000a900473ffffffffffffffffffffffffffffffffffffffff1673ffffffffffffffffffffffffffffffffffffffff166302571be3846040518263ffffffff1660e01b8152600401610a369190610ebe565b602060405180830381865afa158015610a53573d6000803e3d6000fd5b505050506040513d601f19601f82011682018060405250810190610a77919061126d565b73ffffffffffffffffffffffffffffffffffffffff1614610acd576040517f08c379a0000000000000000000000000000000000000000000000000000000008152600401610ac4906114f6565b60405180910390fd5b5b60008054906101000a900473ffffffffffffffffffffffffffffffffffffffff1673ffffffffffffffffffffffffffffffffffffffff16631896f70a83600160009054906101000a900473ffffffffffffffffffffffffffffffffffffffff166040518363ffffffff1660e01b8152600401610b4b9291906112e0565b600060405180830381600087803b158015610b6557600080fd5b505af1158015610b79573d6000803e3d6000fd5b50505050600160009054906101000a900473ffffffffffffffffffffffffffffffffffffffff1673ffffffffffffffffffffffffffffffffffffffff1663773722138386866040518463ffffffff1660e01b8152600401610bdc93929190611543565b600060405180830381600087803b158015610bf657600080fd5b505af1158015610c0a573d6000803e3d6000fd5b50505050509392505050565b7f91d1777781884d03a6757a803996e38de2a42967fb37eeaca72729271025a9e260001b81565b600160009054906101000a900473ffffffffffffffffffffffffffffffffffffffff1681565b60007f91d1777781884d03a6757a803996e38de2a42967fb37eeaca72729271025a9e260001b610c9283610d89565b604051602001610ca392919061122c565b604051602081830303815290604052805190602001209050919050565b600080610cef30600160009054906101000a900473ffffffffffffffffffffffffffffffffffffffff166101d7565b9050600160009054906101000a900473ffffffffffffffffffffffffffffffffffffffff1673ffffffffffffffffffffffffffffffffffffffff16637737221382856040518363ffffffff1660e01b8152600401610d4e9291906115e3565b600060405180830381600087803b158015610d6857600080fd5b505af1158015610d7c573d6000803e3d6000fd5b5050505080915050919050565b60007f303132333435363738396162636465660000000000000000000000000000000060285b6000811115610de55760018103905081600f85161a815360108404935060018103905081600f85161a8153601084049350610daf565b506028600020915050919050565b6000604051905090565b600080fd5b600080fd5b600073ffffffffffffffffffffffffffffffffffffffff82169050919050565b6000610e3282610e07565b9050919050565b610e4281610e27565b8114610e4d57600080fd5b50565b600081359050610e5f81610e39565b92915050565b60008060408385031215610e7c57610e7b610dfd565b5b6000610e8a85828601610e50565b9250506020610e9b85828601610e50565b9150509250929050565b6000819050919050565b610eb881610ea5565b82525050565b6000602082019050610ed36000830184610eaf565b92915050565b600060208284031215610eef57610eee610dfd565b5b6000610efd84828501610e50565b91505092915050565b6000819050919050565b6000610f2b610f26610f2184610e07565b610f06565b610e07565b9050919050565b6000610f3d82610f10565b9050919050565b6000610f4f82610f32565b9050919050565b610f5f81610f44565b82525050565b6000602082019050610f7a6000830184610f56565b92915050565b600080fd5b600080fd5b600080fd5b60008083601f840112610fa557610fa4610f80565b5b8235905067ffffffffffffffff811115610fc257610fc1610f85565b5b602083019150836001820283011115610fde57610fdd610f8a565b5b9250929050565b600080600060408486031215610ffe57610ffd610dfd565b5b600061100c86828701610e50565b935050602084013567ffffffffffffffff81111561102d5761102c610e02565b5b61103986828701610f8f565b92509250509250925092565b600061105082610f32565b9050919050565b61106081611045565b82525050565b600060208201905061107b6000830184611057565b92915050565b600080fd5b6000601f19601f8301169050919050565b7f4e487b7100000000000000000000000000000000000000000000000000000000600052604160045260246000fd5b6110cf82611086565b810181811067ffffffffffffffff821117156110ee576110ed611097565b5b80604052505050565b6000611101610df3565b905061110d82826110c6565b919050565b600067ffffffffffffffff82111561112d5761112c611097565b5b61113682611086565b9050602081019050919050565b82818337600083830152505050565b600061116561116084611112565b6110f7565b90508281526020810184848401111561118157611180611081565b5b61118c848285611143565b509392505050565b600082601f8301126111a9576111a8610f80565b5b81356111b9848260208601611152565b91505092915050565b6000602082840312156111d8576111d7610dfd565b5b600082013567ffffffffffffffff8111156111f6576111f5610e02565b5b61120284828501611194565b91505092915050565b6000819050919050565b61122661122182610ea5565b61120b565b82525050565b60006112388285611215565b6020820191506112488284611215565b6020820191508190509392505050565b60008151905061126781610e39565b92915050565b60006020828403121561128357611282610dfd565b5b600061129184828501611258565b91505092915050565b6112a381610e27565b82525050565b60006060820190506112be6000830186610eaf565b6112cb6020830185610eaf565b6112d8604083018461129a565b949350505050565b60006040820190506112f56000830185610eaf565b611302602083018461129a565b9392505050565b600082825260208201905092915050565b7f4164647220646562652073657220636f6e747261746f00000000000000000000600082015250565b6000611350601683611309565b915061135b8261131a565b602082019050919050565b6000602082019050818103600083015261137f81611343565b9050919050565b7f456c20636f6e747261746f206e6f20696d706c656d656e746120494f776e616260008201527f6c6520636f7272656374616d656e746500000000000000000000000000000000602082015250565b60006113e2603083611309565b91506113ed82611386565b604082019050919050565b60006020820190508181036000830152611411816113d5565b9050919050565b7f4e6f20736f7320656c206f776e65722064656c20636f6e747261746f00000000600082015250565b600061144e601c83611309565b915061145982611418565b602082019050919050565b6000602082019050818103600083015261147d81611441565b9050919050565b7f4e6f207365207075646f20746f6d617220636f6e74726f6c2064656c206e6f6460008201527f6f20454e53000000000000000000000000000000000000000000000000000000602082015250565b60006114e0602583611309565b91506114eb82611484565b604082019050919050565b6000602082019050818103600083015261150f816114d3565b9050919050565b60006115228385611309565b935061152f838584611143565b61153883611086565b840190509392505050565b60006040820190506115586000830186610eaf565b818103602083015261156b818486611516565b9050949350505050565b600081519050919050565b60005b8381101561159e578082015181840152602081019050611583565b60008484015250505050565b60006115b582611575565b6115bf8185611309565b93506115cf818560208601611580565b6115d881611086565b840191505092915050565b60006040820190506115f86000830185610eaf565b818103602083015261160a81846115aa565b9050939250505056fea2646970667358221220fd2d11f78cb36adde8733e3ec287cea47ab774ab39b24503b23973f8a8b8a30564736f6c63430008130033",
  "immutableReferences": {},
  "source": "// SPDX-License-Identifier: MIT\npragma solidity >=0.8.0;\n\nimport \"./ENS.sol\";\n\ninterface IOwnable {\n    function owner() external view returns (address);\n}\n\nabstract contract Resolver {\n    function setName(bytes32 node, string memory name) public virtual;\n}\n\ninterface INameResolver {\n    function setName(bytes32 node, string calldata name) external;\n}\n\ncontract ReverseRegistrar {\n    // namehash('addr.reverse')\n    bytes32 public constant ADDR_REVERSE_NODE =\n        0x91d1777781884d03a6757a803996e38de2a42967fb37eeaca72729271025a9e2;\n\n    ENS public ens;\n    Resolver public defaultResolver;\n\n    /**\n     * @dev Constructor\n     * @param ensAddr The address of the ENS registry.\n     * @param resolverAddr The address of the default reverse resolver.\n     */\n    constructor(ENS ensAddr, Resolver resolverAddr) {\n        ens = ensAddr;\n        defaultResolver = resolverAddr;\n\n        // Assign ownership of the reverse record to our deployer\n        ReverseRegistrar oldRegistrar = ReverseRegistrar(\n            ens.owner(ADDR_REVERSE_NODE)\n        );\n        if (address(oldRegistrar) != address(0x0)) {\n            oldRegistrar.claim(msg.sender);\n        }\n    }\n\n    /**\n     * @dev Transfers ownership of the reverse ENS record associated with the\n     *      calling account.\n     * @param owner The address to set as the owner of the reverse record in ENS.\n     * @return The ENS node hash of the reverse record.\n     */\n    function claim(address owner) public returns (bytes32) {\n        return claimWithResolver(owner, address(0x0));\n    }\n\n    /**\n     * @dev Transfers ownership of the reverse ENS record associated with the\n     *      calling account.\n     * @param owner The address to set as the owner of the reverse record in ENS.\n     * @param resolver The address of the resolver to set; 0 to leave unchanged.\n     * @return The ENS node hash of the reverse record.\n     */\n    function claimWithResolver(\n        address owner,\n        address resolver\n    ) public returns (bytes32) {\n        bytes32 label = sha3HexAddress(msg.sender);\n        bytes32 _node = keccak256(abi.encodePacked(ADDR_REVERSE_NODE, label));\n        address currentOwner = ens.owner(_node);\n\n        // Update the resolver if required\n        if (resolver != address(0x0) && resolver != ens.resolver(_node)) {\n            // Transfer the name to us first if it's not already\n            if (currentOwner != address(this)) {\n                ens.setSubnodeOwner(ADDR_REVERSE_NODE, label, address(this));\n                currentOwner = address(this);\n            }\n            ens.setResolver(_node, resolver);\n        }\n\n        // Update the owner if required\n        if (currentOwner != owner) {\n            ens.setSubnodeOwner(ADDR_REVERSE_NODE, label, owner);\n        }\n\n        return _node;\n    }\n\n    /**\n     * @dev Sets the `name()` record for the reverse ENS record associated with\n     * the calling account. First updates the resolver to the default reverse\n     * resolver if necessary.\n     * @param name The name to set for this address.\n     * @return The ENS node hash of the reverse record.\n     */\n    function setName(string memory name) public returns (bytes32) {\n        bytes32 _node = claimWithResolver(\n            address(this),\n            address(defaultResolver)\n        );\n        defaultResolver.setName(_node, name);\n        return _node;\n    }\n\n    /**\n     * @notice Asocia un nombre ENS reverso a un contrato, siempre que el caller sea su owner.\n     * @dev Toma control del subnodo ENS para poder setear el resolver y el nombre.\n     *      Verifica que el contrato implementa la interfaz IOwnable y que el msg.sender es el owner.\n     *      El ReverseRegistrar mantiene la propiedad del subnodo ENS para facilitar gestin centralizada.\n     * @param addr La direccin del contrato que tendr el nombre ENS reverso.\n     * @param name El nombre a asociar (por ejemplo, \"miapp.llamados.cfp\").\n     * @return reverseNode El hash del nodo ENS reverso (`keccak256(abi.encodePacked(addr.reverse, sha3HexAddress(addr)))`).\n     * @custom:reverts Si la direccin no es un contrato, si no implementa IOwnable, si el caller no es el owner,\n     *                 o si no se puede tomar el control del nodo ENS.\n     */\n    function setNameFor(\n        address addr,\n        string calldata name\n    ) external returns (bytes32 reverseNode) {\n        require(addr.code.length > 0, \"Addr debe ser contrato\");\n\n        // Verificamos que quien llama sea el owner del contrato\n        try IOwnable(addr).owner() returns (address contractOwner) {\n            require(\n                contractOwner == msg.sender,\n                \"No sos el owner del contrato\"\n            );\n        } catch {\n            revert(\"El contrato no implementa IOwnable correctamente\");\n        }\n\n        // Calculamos el nodo ENS reverso\n        bytes32 label = sha3HexAddress(addr);\n        reverseNode = keccak256(abi.encodePacked(ADDR_REVERSE_NODE, label));\n\n        // Si este contrato no es el owner del nodo, tomamos el control\n        if (ens.owner(reverseNode) != address(this)) {\n            ens.setSubnodeOwner(ADDR_REVERSE_NODE, label, address(this));\n            // Confirmamos que efectivamente somos ahora los dueos\n            require(\n                ens.owner(reverseNode) == address(this),\n                \"No se pudo tomar control del nodo ENS\"\n            );\n        }\n        // Seteamos el resolver por defecto\n        ens.setResolver(reverseNode, address(defaultResolver));\n        // Registramos el nombre\n        defaultResolver.setName(reverseNode, name);\n        return reverseNode;\n    }\n\n    /**\n     * @dev Returns the node hash for a given account's reverse records.\n     * @param addr The address to hash\n     * @return The ENS node hash.\n     */\n    function node(address addr) public pure returns (bytes32) {\n        return\n            keccak256(\n                abi.encodePacked(ADDR_REVERSE_NODE, sha3HexAddress(addr))\n            );\n    }\n\n    /**\n     * @dev An optimised function to compute the sha3 of the lower-case\n     *      hexadecimal representation of an Ethereum address.\n     * @param addr The address to hash\n     * @return ret The SHA3 hash of the lower-case hexadecimal encoding of the\n     *         input address.\n     */\n    function sha3HexAddress(address addr) private pure returns (bytes32 ret) {\n        addr;\n        ret; // Stop warning us about unused variables\n        assembly {\n            let\n                lookup\n            := 0x3031323334353637383961626364656600000000000000000000000000000000\n\n            for {\n                let i := 40\n            } gt(i, 0) {\n\n            } {\n                i := sub(i, 1)\n                mstore8(i, byte(and(addr, 0xf), lookup))\n                addr := div(addr, 0x10)\n                i := sub(i, 1)\n                mstore8(i, byte(and(addr, 0xf), lookup))\n                addr := div(addr, 0x10)\n            }\n\n            ret := keccak256(0, 40)\n        }\n    }\n}\n",
  "sourcePath": "/home/simonll4/Desktop/blockchain-llamosas/TP/Final/contracts/contracts/ens/ReverseRegistrar.sol",
  "compiler": {
    "name": "solc",
    "version": "0.8.19+commit.7dd6d404.Emscripten.clang"
  },
  "schemaVersion": "3.4.16",
  "updatedAt": "2025-07-24T03:10:25.757Z",
  "networkType": "ethereum",
  "devdoc": {
    "kind": "dev",
    "methods": {
      "claim(address)": {
        "details": "Transfers ownership of the reverse ENS record associated with the      calling account.",
        "params": {
          "owner": "The address to set as the owner of the reverse record in ENS."
        },
        "returns": {
          "_0": "The ENS node hash of the reverse record."
        }
      },
      "claimWithResolver(address,address)": {
        "details": "Transfers ownership of the reverse ENS record associated with the      calling account.",
        "params": {
          "owner": "The address to set as the owner of the reverse record in ENS.",
          "resolver": "The address of the resolver to set; 0 to leave unchanged."
        },
        "returns": {
          "_0": "The ENS node hash of the reverse record."
        }
      },
      "constructor": {
        "details": "Constructor",
        "params": {
          "ensAddr": "The address of the ENS registry.",
          "resolverAddr": "The address of the default reverse resolver."
        }
      },
      "node(address)": {
        "details": "Returns the node hash for a given account's reverse records.",
        "params": {
          "addr": "The address to hash"
        },
        "returns": {
          "_0": "The ENS node hash."
        }
      },
      "setName(string)": {
        "details": "Sets the `name()` record for the reverse ENS record associated with the calling account. First updates the resolver to the default reverse resolver if necessary.",
        "params": {
          "name": "The name to set for this address."
        },
        "returns": {
          "_0": "The ENS node hash of the reverse record."
        }
      },
      "setNameFor(address,string)": {
        "custom:reverts": "Si la direccin no es un contrato, si no implementa IOwnable, si el caller no es el owner,                 o si no se puede tomar el control del nodo ENS.",
        "details": "Toma control del subnodo ENS para poder setear el resolver y el nombre.      Verifica que el contrato implementa la interfaz IOwnable y que el msg.sender es el owner.      El ReverseRegistrar mantiene la propiedad del subnodo ENS para facilitar gestin centralizada.",
        "params": {
          "addr": "La direccin del contrato que tendr el nombre ENS reverso.",
          "name": "El nombre a asociar (por ejemplo, \"miapp.llamados.cfp\")."
        },
        "returns": {
          "reverseNode": "El hash del nodo ENS reverso (`keccak256(abi.encodePacked(addr.reverse, sha3HexAddress(addr)))`)."
        }
      }
    },
    "version": 1
  },
  "userdoc": {
    "kind": "user",
    "methods": {
      "setNameFor(address,string)": {
        "notice": "Asocia un nombre ENS reverso a un contrato, siempre que el caller sea su owner."
      }
    },
    "version": 1
  }
}